:020000040800F2
:1000000000350120E9020008CD070008BF050008FF
:10001000C9070008210500081B0D000800000000AA
:10002000000000000000000000000000290200089D
:10003000250500080000000085020008BD0B00082F
:100040000303000803030008030300080303000878
:100050000303000803030008030300080303000868
:100060000303000803030008030300080303000858
:100070000303000803030008030300080303000848
:100080000303000803030008030300080303000838
:100090000303000803030008030300080303000828
:1000A0000303000803030008030300080303000818
:1000B0000303000803030008030300080303000808
:1000C00003030008030300080303000803030008F8
:1000D00003030008350C00080303000803030008AD
:1000E00003030008030300080303000803030008D8
:1000F00003030008030300080303000803030008C8
:1001000003030008030300080303000803030008B7
:1001100003030008030300080303000803030008A7
:100120000303000803030008030300080303000897
:100130000303000803030008030300080303000887
:100140000303000803030008030300080303000877
:100150000303000803030008030300080303000867
:100160000303000803030008030300080303000857
:100170000303000803030008030300080303000847
:10018000030300080303000800F002F800F03CF845
:100190000AA090E8000C82448344AAF10107DA45E2
:1001A00001D100F031F8AFF2090EBAE80F0013F0F8
:1001B000010F18BFFB1A43F001031847D8320000A3
:1001C000F8320000103A24BF78C878C1FAD8520734
:1001D00024BF30C830C144BF04680C6070470000C1
:1001E0000023002400250026103A28BF78C1FBD840
:1001F000520728BF30C148BF0B6070471FB502F0DF
:1002000037FD1FBD10B510BD00F05BF91146FFF7BB
:10021000F5FF00F03FFE00F079F903B4FFF7F2FFBD
:1002200003BC00F0A8FD00002C4B19680868B0E87A
:10023000F04F80F30988BFF36F8F4FF0000080F319
:10024000118870470000000008480068006880F3CB
:1002500008884FF0000080F3148862B661B6BFF3DF
:100260004F8FBFF36F8F00DF00BF00BF08ED00E0CE
:10027000DFF80C00016841F470010160704700BFB5
:1002800088ED00E0EFF30980BFF36F8F134B1A681E
:100290001EF0100F08BF20ED108A20E9F04F10600B
:1002A00009B44FF0500080F31188BFF34F8FBFF3B4
:1002B0006F8F01F07BFE4FF0000080F3118809BCC6
:1002C00019680868B0E8F04F1EF0100F08BFB0ECD6
:1002D000108A80F30988BFF36F8F704730000020C9
:1002E000EFF3058070470000094880470948004740
:1002F000FEE7FEE7FEE7FEE7FEE7FEE7FEE7FEE7D6
:10030000FEE7FEE704480549054A064B7047000032
:10031000CD0B000889010008002F012000350120C5
:1003200000310120003101207047032A40F2308063
:1003300010F0030C00F0158011F8013BBCF1020F26
:10034000624498BF11F801CB00F8013B38BF11F8A7
:10035000013BA2F1040298BF00F801CB38BF00F8BE
:10036000013B11F0030300F03180083AC0F008802F
:1003700051F8043B083A51F804CBA0E80810F5E71F
:10038000121D5CBF51F8043B40F8043BAFF3008002
:10039000D20724BF11F8013B11F801CB48BF11F877
:1003A000012B24BF00F8013B00F801CB48BF00F847
:1003B000012B704702F0FF0343EA032242EA0242A4
:1003C00000F038B8704770477047704710B5203A52
:1003D000C0F00B80B1E81850203AA0E81850B1E8FE
:1003E0001850A0E81850BFF4F5AF5FEA027C24BFB4
:1003F000B1E81850A0E8185044BF18C918C0BDE8AB
:1004000010405FEA827C24BF51F8043B40F8043B73
:1004100008BF7047D20728BF31F8023B48BF11F828
:10042000012B28BF20F8023B48BF00F8012B704782
:100430004FF000020429C0F0128010F0030C00F00D
:100440001B80CCF1040CBCF1020F18BF00F8012B8B
:10045000A8BF20F8022BA1EB0C0100F00DB85FEA59
:10046000C17C24BF00F8012B00F8012B48BF00F825
:10047000012B70474FF0000200B513469446964694
:10048000203922BFA0E80C50A0E80C50B1F12001A7
:10049000BFF4F7AF090728BFA0E80C5048BF0CC055
:1004A0005DF804EB890028BF40F8042B08BF7047B3
:1004B00048BF20F8022B11F0804F18BF00F8012B25
:1004C0007047754600F028F8AE4605006946534669
:1004D00020F00700854618B020B5FFF713FFBDE8F0
:1004E00020404FF000064FF000074FF000084FF09B
:1004F000000B21F00701AC46ACE8C009ACE8C0092C
:10050000ACE8C009ACE8C0098D4670470446AFF3BB
:1005100000802046FFF781FE004870479C2E012096
:1005200000BFFEE77047F0B50A4600210023002413
:1005300000BF3DE0012505FA01F3156805EA030453
:100540009C4234D105684F000326BE40B543056088
:1005500015794E00B5400668354305601579012DC3
:1005600002D01579022D16D185684F000326BE40B2
:10057000B543856055794E00B54086683543856042
:10058000456801268E40B5434560456896798E40A2
:10059000B6B235434560C5684F000326BE40B5433B
:1005A000C560D5794E00B540C6683543C560491C65
:1005B0001029BFD3F0BD418370470183704700BF4E
:1005C000FEE700001CB50121022000F05DFA4FF4A7
:1005D0004060009001208DF8040000208DF8060096
:1005E00003208DF8050001208DF8070069460548B5
:1005F000FFF799FF0120044908600449C1F8AC02E3
:100600001CBD000000040240A8824042008040421D
:1006100070B504461548006820F44000134908608E
:100620000846006840F48000086000201049086017
:10063000002517E0E0090E49091D08606006040E58
:10064000022000F0DDFB01200A49C1F8A8020220C7
:1006500000F0D6FB002006490860022000F0D0FB25
:10066000681CC5B2082DE5DB70BD00000004024027
:10067000A88240420080404210B50F48006820F434
:1006800040000D4908600846006840F4800008609A
:1006900001200A4908600A49C1F8A802042000F0B4
:1006A000AFFB002005490860042000F0A9FB0020F2
:1006B0000349C1F8A80210BD00040240AC824042C8
:1006C0000080404210B50F48006820F440000D49FA
:1006D00008600846006840F48000086000200A496D
:1006E00008600A49C1F8AC02042000F089FB01202F
:1006F000054908600549C1F8AC02042000F080FB00
:1007000010BD000000040240A88240420080404228
:1007100010B500241348006820F440001149086017
:1007200008460068086001200F49086000F068FB77
:1007300001200E49C1F8A80200F062FB07E0601C2E
:10074000C4B2FA2C03DDFFF7BDFF012010BD06483F
:10075000803800680028F2D10349091F086000BFF3
:10076000F4E7000000040240AC82404200804042B6
:100770001CB50121032000F087F94FF400400090E0
:1007800001208DF8040000208DF8060003208DF86C
:10079000050001208DF8070069460948FFF7C3FEF0
:1007A0001020009069460748FFF7BDFE4FF46041F6
:1007B0000348FFF700FF10210248FFF7FCFE1CBDB5
:1007C000000002400004024000BFFEE7704770B521
:1007D000002418E004F1B000002100F048F90021E5
:1007E000084600F044F90021102000F040F90025EF
:1007F00005E00121002000F03AF9681CC5B2802D07
:10080000F7DB601CC4B2082CE4DB70BD10B500211E
:100810008D2000F02CF90021142000F028F900218F
:10082000AF2000F024F910BD1CB50121062000F016
:100830002BF94FF44060009001208DF80400022055
:100840008DF8050000208DF8060069464448FFF742
:100850006AFE2020009069464248FFF764FEFFF7D9
:10086000B1FE20213F48FFF7A6FEC82000F0A8FAFD
:1008700020213C48FFF7A1FE4FF4FA7000F0A0FAE7
:100880000021AE2000F0F3F80021084600F0EFF858
:100890000021102000F0EBF80021402000F0E7F8E4
:1008A0000021B02000F0E3F80021812000F0DFF803
:1008B0000021FF2000F0DBF80021A12000F0D7F894
:1008C0000021A62000F0D3F80021A82000F0CFF8E6
:1008D00000213F2000F0CBF80021C82000F0C7F82D
:1008E0000021D32000F0C3F80021084600F0BFF833
:1008F0000021D52000F0BBF80021802000F0B7F8DF
:100900000021D82000F0B3F80021052000F0AFF856
:100910000021D92000F0ABF80021F12000F0A7F869
:100920000021DA2000F0A3F80021122000F09FF847
:100930000021DB2000F09BF80021302000F097F828
:1009400000218D2000F093F80021142000F08FF892
:100950000021AF2000F08BF8FFF758FF1CBD00000E
:10096000000402400008024070B504460D4605F13F
:10097000B000002100F07BF8102141EA14100021A2
:1009800000F075F804F00F00002100F070F870BD61
:100990002DE9F04707460E4690469946002500246B
:1009A000A8F12000C5B27F2F02DD0027B01CC6B21F
:1009B000B9F1100F24D131463846FFF7D5FF002496
:1009C00008E004EB0511194A505C012100F04FF8D2
:1009D000601CC4B2082CF4DB701CC1B23846FFF7AF
:1009E000C3FF002409E004EB051108310F4A505CF5
:1009F000012100F03CF8601CC4B2082CF3DB12E0CB
:100A000031463846FFF7B0FF00240AE005EB450108
:100A1000074A02EB4101085D012100F028F8601C43
:100A2000C4B2062CF2DBBDE8F0870000A22E00085D
:100A30007A2C00082DE9F04104460F4615469846E9
:100A400000260FE0AA5D434639462046FFF7A0FF87
:100A500004F10800C4B2782C02DD0024B81CC7B22F
:100A6000701CC6B2A85D0028ECD1BDE8F08170B55D
:100A700004460D461DB1E0B200F067F902E0E0B2B5
:100A800000F04DF970BD000029B1064A126802431A
:100A9000044B1A6004E0034A12688243014B1A6057
:100AA00070470000303802400CB5002001900090E3
:100AB0003448006840F480303249086000BF314853
:100AC000006800F4003000900198401C01900098EC
:100AD00018B90198B0F5A04FF1D12A48006800F488
:100AE000003010B10120009001E00020009000983B
:100AF000012846D123484030006840F08050214909
:100B0000403108602048006840F440401E490860B9
:100B10001C48083000681B49083108600846006816
:100B200040F4004008600846006840F4A0500860A7
:100B30001648091F0860081F006840F08070091FF0
:100B4000086000BF0F48006800F000700028F9D06E
:100B500040F205700E4908600A480830006820F02D
:100B600003000849083108600846006840F00200A8
:100B7000086000BF03480830006800F00C00082837
:100B8000F8D10CBD00380240007000400854400706
:100B9000003C0240042808D14FF0E021096941F0EF
:100BA00004014FF0E022116107E04FF0E0210969F4
:100BB00021F004014FF0E0221161704710B501F0FF
:100BC000FDFD012801D001F0EBFA10BD10B515486C
:100BD000006840F47000134908601348006840F052
:100BE00001001149086000200F49083108600E48D3
:100BF00000680E4908400C4908600D48091D08604E
:100C0000081F006820F48020091F086000200649A2
:100C10000C310860FFF748FF4FF000600149803950
:100C2000086010BD88ED00E000380240FFFFF6FECE
:100C30001030002410B540F225511D4800F03EF858
:100C400010B31B4800F064F8C4B21A48008800F4DE
:100C50000040C8B91748008800F4804060B10A2CF1
:100C600003D000201349088020E01248008840F497
:100C700000401049088019E00D2C06D10D4800886D
:100C800040F480400B49088010E00A480088C0F317
:100C90000D0009490C5407480088401C054908808C
:100CA00008460088C72801DD0020088010BD00002C
:100CB000001001402C000020A400002070B5024666
:100CC000002400230025002040F66A16B14200D11E
:100CD00000BFC1F3421501F01F03012606FA03F31A
:100CE000012D02D19689334006E0022D02D1168AE9
:100CF000334001E0968A33400C12012606FA04F4D0
:100D00001688344013B10CB1012000E0002070BD02
:100D100001468888C0F30800704700BFFEE710B5A1
:100D20000446FFF7A9FC7820FFF772FCFFF7F0FC00
:100D30000020FFF76DFCFFF7EBFC2046FFF768FC97
:100D4000FFF7E6FCFFF7BEFC10BD10B50446FFF749
:100D500093FC7820FFF75CFCFFF7DAFC4020FFF7FC
:100D600057FCFFF7D5FC2046FFF752FCFFF7D0FCFD
:100D7000FFF7A8FC10BD00BF7047000070B5044627
:100D80000420FFF707FF0C48046025464FF47A70F3
:100D900045430120094908604FF0E020006940F018
:100DA00002004FF0E021086108464561006940F00B
:100DB0000100086170BD0000200000202400002018
:100DC00070B5044601F0FAFC012810D00B48006809
:100DD000844206D309480068B4FBF0F5284600F0C9
:100DE0009DFF06480068B4FBF0F100FB11444FF48E
:100DF0007A7104FB01F000F003F870BD24000020BC
:100E000070B5034600224FF0E02675690D4E366836
:100E100003FB06F44FF0E026B16910E04FF0E02646
:100E2000B06988420BD0884202D20E1A324402E0E6
:100E30002E1A0E4432440146A24200D300E0EDE7F0
:100E400000BF70BD2000002008E005480068C043D6
:100E50000449C1F89002642000F060FFF5E700004B
:100E600090824042008040420EE000200749086026
:100E70004FF4FA7000F052FF01200549C1F8BC029E
:100E80004FF4FA7000F04AFFEFE70000BC02404266
:100E9000000040421CB5A820FFF770FFFFF768FC78
:100EA000FFF7C2FCFFF793FC102309A200210846BC
:100EB000FFF7C0FD0B48012100238022CDE900107F
:100EC00009A10C4801F04AFC01F01EF800201CBDED
:100ED00020204672656552544F532044656D6F2043
:100EE000200000000000002073746172745F746160
:100EF000736B0000E11900082DE9F04105460E462C
:100F00001C4807681C480068001D00F09FFD50B990
:100F10001948006890F82C1001208840174909688A
:100F2000814316480160681C38B936B1124801681F
:100F3000091D134800F0C8FD1AE07C190E4800682E
:100F40004460BC4207D20C480168091D0D48006886
:100F500000F0A0FD0CE008480168091D0A4800687F
:100F600000F098FD09480068844201D207480460F7
:100F7000BDE8F0814400002030000020480000203F
:100F800038020020380000203400002060000020DB
:100F900010B5044600F0A4FD24480068401C234915
:100FA00008602348006840B921480460084600688A
:100FB00001280DD100F0DEF90AE01E48006838B9BA
:100FC0001B480068C06AE16A884201D8184804607A
:100FD00019480068401C18490860084600682064E9
:100FE00094F82C10012088401449096808431349DB
:100FF0000860E16A01EB8101114A02EB8100211DC9
:1010000000F062FD00F096FD0A48006868B10848EB
:101010000068C06AE16A884207D24FF080500949EF
:101020000860BFF34F8FBFF36F8F10BD40000020EB
:10103000300000204C0000205C0000204800002010
:10104000AC01002004ED00E010B500F049FD1048AF
:101050000068D0B90F4800F00DFD0F4800F00AFD00
:101060000C480E4908600C480D49086000220C210C
:101070000A2001F0AFF8064908600846006820B170
:1010800008A10348006800F00DFE00F053FD10BDFC
:101090007400002074020020880200206C000020F0
:1010A00070000020546D72510000000010B516E071
:1010B00000F016FD0C48C068C468201D00F0C6FC96
:1010C0000A480068401E0949086009480068401E37
:1010D0000749086000F02EFD204600F05FF8044844
:1010E00000680028E4D110BD240200204000002048
:1010F0003C00002070B504460D46206C70B1216C98
:10110000E0680144E160D4E90210884201D321681B
:10111000E1602846226CE168FFF707F970BD2DE910
:10112000F04104460F4615464FF00008A66B206CB0
:1011300048B9206800282CD1A06801F0F9FB80464E
:101140000020A06025E07DB93946226C6068FFF779
:10115000ECF8216C606808446060D4E901018842C1
:1011600017D32068606014E03946226CE068FFF70E
:10117000DCF8216CE068411AE1602168E06888428F
:1011800003D2216CA068411AE160022D01D106B1A1
:10119000761E701CA0634046BDE8F08110B5044681
:1011A000206B00F0E5FC204600F0E2FC10BD0000E2
:1011B0000146084A126812680AB9012200E00022BA
:1011C0000A600A6822B9034A1268D268106800E00F
:1011D000002070476C00002030B54FF4963317485C
:1011E00000F007042CB1C01D20F00700134C041BB5
:1011F0001B1B0246124C22600024114D6C60D0185B
:10120000083820F007000F4C206000240D4D2D6899
:101210006C600C4D2D682C601146441A4C60094CD2
:1012200024680C60084D4C682C60084D4C682C609C
:101230004FF00044064D2C6030BD00009C020020A1
:101240008000002088000020900000208C000020FA
:101250009400002000BFFFF729FF0648006801281E
:10126000F9D94FF0805004490860BFF34F8FBFF3A6
:101270006F8FF0E7AC01002004ED00E02DE9F041B4
:1012800006460D4617469846069C0DB9246000E0B8
:101290002760E66325640121204600F0C9FF84F839
:1012A0004C80BDE8F0812DE9F05F82460E46904605
:1012B0009B460A9F0C9C56B900BF502080F31188B2
:1012C000BFF34F8FBFF36F8F00BF00BFFEE74FEA42
:1012D0008801A522206BFFF76DF8A8F10100216BB2
:1012E00001EB800929F0070909F0070008B901207E
:1012F00000E0002050B900BF502080F31188BFF3F8
:101300004F8FBFF36F8F00BF00BFFEE7002507E0E0
:10131000715D04F134004155705D00B902E06D1C4F
:101320000A2DF5D300BF00213D200155052F00D324
:101330000427E762A7640020E064201D00F0A7FBFB
:1013400004F1180000F0A3FB2461C7F10500A061BF
:1013500064620020206584F854005A46514648468D
:1013600000F028FB20600B9808B10B980460BDE8E2
:10137000F09F000010B5002407E004EB84010F4A41
:1013800002EB810000F076FB641C052CF5D30C48C1
:1013900000F070FB0B4800F06DFB0B4800F06AFB9F
:1013A0000A4800F067FB0A4800F064FB044809495A
:1013B000086004480849086010BD0000AC01002026
:1013C0004C020020600200201002002024020020B5
:1013D00038020020340000203800002010B50146FB
:1013E000164800E0006803688B42FBD3024643685E
:1013F00013448B4204D143684C6823444360014644
:101400000A464B6813440468A34211D10C4C03688C
:101410002468A34208D04B680468646823444B6086
:1014200003681B680B6005E0054B1B680B6001E05F
:1014300003680B60884200D0016010BD800000206E
:10144000880000202DE9F04104460D4616461F464F
:101450004FF0000865602461B5420CD8F01BA1690B
:10146000884202D34FF0010811E0211D09480068AD
:1014700000F010FB0BE0BE4204D2BD4202D34FF09D
:10148000010804E0211D0448006800F003FB404609
:10149000BDE8F081700000206C00002070B50546AA
:1014A00000F01EFBA86B08B9012400E0002400F046
:1014B00041FB204670BD70B5054600F011FBA86BDE
:1014C000E96B884201D1012400E0002400F032FBE6
:1014D000204670BDF8B505460F4616480068C0683E
:1014E000C468201D00F0B2FAE06901281DD1A0698E
:1014F00041192B463A462046FFF7A4FFA8B1002029
:1015000003462A4601460090204601F06FFB06463E
:1015100056B900BF502080F31188BFF34F8FBFF33F
:101520006F8F00BF00BFFEE700BF2046616A88479B
:10153000F8BD00006C00002070B586B06AE003982A
:10154000002867DB059C606908B9012000E00020E5
:1015500010B9201D00F07AFA02A800F0BBF8054689
:1015600003980A2854D2DFE800F009050731334F09
:101570000608323400BF00BF00BF00BF0498A26954
:10158000811803462A462046FFF75CFFE8B1204653
:10159000616A8847E069012817D10020009004980B
:1015A000A169421800231946204601F01FFB064698
:1015B00056B900BF502080F31188BFF34F8FBFF39F
:1015C0006F8F00BF00BFFEE700BF22E000BF20E03A
:1015D00000BF0498A061A06908B1012000E00020CC
:1015E00050B900BF502080F31188BFF34F8FBFF375
:1015F0006F8F00BF00BFFEE7A06941192B462A4646
:101600002046FFF71FFF04E0204600F0B1FA00E09B
:1016100000BF00BF002203A90348006800F0A4FF38
:1016200000288CD106B070BD74000020F8B50546C6
:101630000C4600F0B3FC684600F04CF806460098F3
:1016400020BB44B9B54206D801F022FA31462846FB
:10165000FFF740FF1CE03CB10E480068006808B985
:10166000012000E000200446A91B22460A48006829
:1016700000F02EFB01F00CFA50B94FF080500749F2
:101680000860BFF34F8FBFF36F8F01E001F000FAE6
:10169000F8BD0000700000207400002004ED00E0A0
:1016A0000A490968096809B9012100E0002121B14E
:1016B0004FF0FF31064A116006E004490968C96825
:1016C000C868034A41681160704700003400002078
:1016D0006000002070B5044601F080F80546074818
:1016E0000068854204D200F00BF80120206001E080
:1016F0000020206001480560284670BD7C00002065
:101700002DE9F84332E024480068C06805682248A3
:101710000068C068C468201D00F098F92046616A1E
:101720008847E069012821D1A0694619AE4207D94E
:1017300066602461211D1848006800F0ABF915E0CF
:10174000002003462A4601460090204601F04EFA4A
:10175000074657B900BF502080F31188BFF34F8F61
:10176000BFF36F8F00BF00BFFEE700BF0A480068ED
:10177000006808B9012000E000200028C3D0064816
:10178000D0F8008005480068034908600348C0F8A5
:101790000080BDE8F88300006C000020700000208D
:1017A0000E480068401C08B9012000E0002050B934
:1017B00000BF502080F31188BFF34F8FBFF36F8FAE
:1017C00000BF00BFFEE700BF502080F31188BFF3C9
:1017D0004F8FBFF36F8F00BF00BFFEE79800002060
:1017E00008B500BF6846FFF7E3FC044620460099B1
:1017F000FFF71CFFFFF7A0FEF4E770B5044600F00A
:101800006FF994F9455010E0606A08B9012000E0D2
:10181000002038B904F1240001F0EEF818B100F00E
:1018200031FB00E003E0681E45B2002DECDC00BF98
:10183000FF2084F8450000F07DF900F051F994F99B
:10184000445010E0206908B9012000E0002048B9A8
:1018500004F1100001F0D0F808B100F013FB681E8D
:1018600045B200E001E0002DECDC00BFFF2084F871
:10187000440000F05FF970BD2DE9F04104464FF0DF
:10188000000800F08BFB4648006808B9FFF7A4FC8D
:1018900044480068204000286BD1D4B1083404F0DB
:1018A0000700B0B104F00700C0F10800044404F0E0
:1018B000070008B9012000E0002050B900BF502007
:1018C00080F31188BFF34F8FBFF36F8F00BF00BF4E
:1018D000FEE7002C4DD034480068844249D8334E8E
:1018E0003046056801E02E462D686868A04202D2A5
:1018F00028680028F7D12A480068854239D0306826
:1019000000F10808286830606868001B102819D9A1
:101910002F1907F0070008B9012000E0002050B996
:1019200000BF502080F31188BFF34F8FBFF36F8F3C
:1019300000BF00BFFEE76868001B78606C60384637
:10194000FFF74CFD184968680968081A16490860CD
:101950000846006816490968884203D212480068A0
:10196000134908600F4968680968084368600020E7
:10197000286001F08DF808F0070008B9012000E0A8
:10198000002050B900BF502080F31188BFF34F8F63
:10199000BFF36F8F00BF00BFFEE74046BDE8F08198
:1019A00088000020940000208C000020800000208F
:1019B00090000020001F4FF080730360001F21F093
:1019C00001030360001F054B036014380260001F11
:1019D0006FF002030360203870470000A117000871
:1019E0001CB5044600F07CF80D4802210023322289
:1019F000CDE900100BA10E4800F0B0FE0D48032108
:101A000000233222CDE900100BA10E4800F0A6FE03
:101A10000D48006800F0B0F900F08CF81CBD000023
:101A2000040000206C6564305F7461736B0000001B
:101A3000490E0008080000206C6564315F74617312
:101A40006B000000690E00080000002001460A69D2
:101A5000D1E901309860D1E90103586050688842AB
:101A600001D188685060002008611068401E106035
:101A70001068704700F1080141604FF0FF3181604C
:101A800000F10801C160016100210160704700217F
:101A90000161704710B502460B685C1C0CB91069F7
:101AA00007E002F1080000E04068446824689C42B6
:101AB000FAD944684C604C68A160886041600A6152
:101AC0001468641C146010BD42684A6093688B609F
:101AD000936859609160086103685B1C03607047FC
:101AE00000BF502080F31188BFF34F8FBFF36F8F7B
:101AF00000BF0E480068401C0C490860084600689A
:101B0000012812D10A480068C0B208B9012000E0DB
:101B1000002050B900BF502080F31188BFF34F8FD1
:101B2000BFF36F8F00BF00BFFEE770479800002033
:101B300004ED00E00D48006850B900BF502080F36C
:101B40001188BFF34F8FBFF36F8F00BF00BFFEE759
:101B500006480068401E054908600846006820B92C
:101B6000002080F3118800BF00BF7047980000205C
:101B700070B506463546002E3FD0083D2C461F491D
:101B800060680968084008B1012000E0002050B9F1
:101B900000BF502080F31188BFF34F8FBFF36F8FCA
:101BA00000BF00BFFEE7206808B9012000E0002068
:101BB00050B900BF502080F31188BFF34F8FBFF39F
:101BC0006F8F00BF00BFFEE70C49606809680840DE
:101BD00098B1206888B909496068096888436060DD
:101BE00000F0DCF9064960680968084404490860A7
:101BF0002046FFF7F3FB00F04BFF70BD9400002080
:101C00008C00002000204FF0E02108618861064828
:101C100000684FF47A71B0FBF1F0401E4FF0E02104
:101C200048610720086170470C00002070B5FEF77E
:101C300057FB0446102C16D304F1E02090F8F05323
:101C400015480078854201DB012000E0002050B9F2
:101C500000BF502080F31188BFF34F8FBFF36F8F09
:101C600000BF00BFFEE70D48006800F4E0600C49CB
:101C70000968884201D8012000E0002050B900BF67
:101C8000502080F31188BFF34F8FBFF36F8F00BFD9
:101C900000BFFEE770BD00009C0000200CED00E0DE
:101CA000A0000020024600200BE0084B53F8303023
:101CB00033B9064B43F8301003EBC0035A6002E01F
:101CC000401C0828F1D300BF704700006C010020C1
:101CD0002DE9F04105460E4617462C46FFF700FF5A
:101CE00094F94400401C10B9002084F8440094F991
:101CF0004500401C10B9002084F84500FFF71AFF8A
:101D0000A06B28B93A46314604F1240000F0DCF813
:101D10002046FFF772FDBDE8F081000070B5044673
:101D20000025D4B11248006808B9012000E0002065
:101D300050B900BF502080F31188BFF34F8FBFF31D
:101D40006F8F00BF00BFFEE700F028F9002120469A
:101D5000FFF7D2F800F09CFE05463DB94FF08050E9
:101D600004490860BFF34F8FBFF36F8F70BD000051
:101D70006800002004ED00E070B50546FFF7B0FEF6
:101D800015B93048006800E028460446201DFFF7DA
:101D90005DFE78B9E06A00EB80002B4951F8200025
:101DA00040B994F82C1001208840284909688143E3
:101DB00026480160A06A18B104F11800FFF746FE3A
:101DC00023480068401C224908601E48006884427D
:101DD00009D1211D1F48FFF777FE1F480068401CEE
:101DE0001D49086009E01D480068401E1B49086045
:101DF0002046FFF7D3F9FFF753FCFFF79BFE184887
:101E00000068E8B10F480068844219D1154800689D
:101E100008B9012000E0002050B900BF502080F335
:101E20001188BFF34F8FBFF36F8F00BF00BFFEE776
:101E30004FF080500C490860BFF34F8FBFF36F8F96
:101E400070BD000030000020AC01002048000020E0
:101E50005C000020240200203C0000204000002004
:101E60004C0000206800002004ED00E003490968F0
:101E70000160034909684160704700005800002074
:101E800044000020012001490860704754000020F0
:101E900070B504460D4654B900BF502080F3118838
:101EA000BFF34F8FBFF36F8F00BF00BFFEE7054842
:101EB000016818312046FFF7EDFD01212846FFF7A4
:101EC0001BF870BD3000002070B505460E46144664
:101ED00055B900BF502080F31188BFF34F8FBFF377
:101EE0006F8F00BF00BFFEE7064801681831284623
:101EF000FFF7EAFD0CB14FF0FF3621463046FEF702
:101F0000FBFF70BD300000201CB51D4800210B46B2
:101F10008222CDE900101BA11C4800F01FFC0446E2
:101F2000012C02D100F036FE0446012C15D100BF71
:101F3000502080F31188BFF34F8FBFF36F8F00BF26
:101F40004FF0FF301249086001201249086000205C
:101F50001149086000F070F810E0601C08B1012021
:101F600000E0002050B900BF502080F31188BFF37B
:101F70004F8FBFF36F8F00BF00BFFEE71CBD000097
:101F80006400002049444C45000000005512000840
:101F9000600000204C00002044000020024800683F
:101FA000401C014908607047680000201D48006817
:101FB00018B101201C49086032E000201A4908606D
:101FC0001A480068B0FA80F0C0F11F0101EB8100EF
:101FD000174A52F8200008B1012000E0002050B953
:101FE00000BF502080F31188BFF34F8FBFF36F8F76
:101FF00000BF00BFFEE701EB81020D4B03EB820047
:1020000042685268426000F108024368934202D17C
:102010004268526842604268D268064B1A6000BF4C
:102020007047000068000020540000204800002095
:10203000AC010020300000201CB552480068524915
:10204000884201D0012000E0002050B900BF50209C
:1020500080F31188BFF34F8FBFF36F8F00BF00BFB6
:10206000FEE7484800684849491E884201D00120DF
:1020700000E0002050B900BF502080F31188BFF36A
:102080004F8FBFF36F8F00BF00BFFEE73F49084689
:1020900000780190FF200A461070084600780090F2
:1020A0009DF8000000F0F0009DF80020904201D162
:1020B000012000E0002050B900BF502080F31188BB
:1020C000BFF34F8FBFF36F8F00BF00BFFEE79DF8D8
:1020D000000000F050002E4A107007202D4A1060BA
:1020E00009E02C480068401E2A4A10609DF8000054
:1020F0004006000E00909DF8000000F0800080284F
:10210000EFD024480068C0F10700042801D1012065
:1021100000E0002050B900BF502080F31188BFF3C9
:102120004F8FBFF36F8F00BF00BFFEE719480068F5
:102130000002184A10601046008800F4E060106049
:10214000124A019810700F482030006840F4700067
:102150000C49203108600846006840F07040086073
:10216000FFF750FD00200C490860FEF781F80B488E
:10217000006840F0404009490860FEF765F800201B
:102180001CBD000000ED00E071C20F4100E400E062
:102190009C000020A00000209800002034EF00E008
:1021A00010B500BF502080F31188BFF34F8FBFF3ED
:1021B0006F8F00BF00F018FB18B14FF0805004493A
:1021C000086000BF002080F3118800BF10BD000030
:1021D00004ED00E02DE9F84305460E4690460DB1AA
:1021E000012000E0002050B900BF502080F311888A
:1021F000BFF34F8FBFF36F8F00BF00BFFEE70EB975
:10220000002701E005FB06F707F15000FFF734FB5C
:1022100004464CB1A14609F1500943464A463146AD
:1022200028460094FFF72AF82046BDE8F88300000E
:1022300070B505460E462C4654B900BF502080F3B9
:102240001188BFF34F8FBFF36F8F00BF00BFFEE752
:10225000FFF746FCD4E90F12206801FB0200A060E2
:102260000020A06320686060E06B401E226C216843
:1022700000FB0211E160FF2084F8440084F845006F
:102280009EB9206908B9012000E00020A8B904F136
:10229000100000F0B1FB80B14FF080500949086098
:1022A000BFF34F8FBFF36F8F07E004F11000FFF70C
:1022B000E1FB04F12400FFF7DDFBFFF73BFC01200D
:1022C00070BD000004ED00E02DE9FF4383B0064639
:1022D00088461D464FF00009344654B900BF5020CF
:1022E00080F31188BFF34F8FBFF36F8F00BF00BF24
:1022F000FEE7B8F1000F01D1206C08B9012000E021
:10230000002050B900BF502080F31188BFF34F8FD9
:10231000BFF36F8F00BF00BFFEE7022D02D1E06B5D
:10232000012801D1012000E0002050B900BF502059
:1023300080F31188BFF34F8FBFF36F8F00BF00BFD3
:10234000FEE700F03BFA08B9059808B9012000E063
:10235000002050B900BF502080F31188BFF34F8F89
:10236000BFF36F8F00BF00BFFEE700BFFFF7B8FBF2
:10237000A06BE16B884201D3022D28D12A46414649
:102380002046FEF7CCFE0746606A08B9012000E04F
:10239000002068B904F1240000F02EFB88B14FF052
:1023A000805032490860BFF34F8FBFF36F8F08E052
:1023B0003FB14FF080502D490860BFF34F8FBFF3FE
:1023C0006F8FFFF7B7FB012007B0BDE8F0830598DA
:1023D00018B9FFF7AFFB0020F6E7B9F1000F04D101
:1023E00001A8FFF743FD4FF00109FFF7A3FBFFF73B
:1023F000D5FDFFF775FB94F94400401C10B900208F
:1024000084F8440094F94500401C10B9002084F879
:102410004500FFF78FFB05A901A800F059F9F0B9B5
:102420002046FFF748F8A0B104F110000599FFF726
:102430002FFD2046FFF7E1F900F02AFB002895D197
:102440004FF0805009490860BFF34F8FBFF36F8F83
:102450008CE72046FFF7D1F900F01AFB86E720460B
:10246000FFF7CBF900F014FB0020ADE704ED00E02E
:102470002DE9F05F07468A4690461E463C4654B911
:1024800000BF502080F31188BFF34F8FBFF36F8FD1
:1024900000BF00BFFEE7BAF1000F01D1206C08B900
:1024A000012000E0002050B900BF502080F31188C7
:1024B000BFF34F8FBFF36F8F00BF00BFFEE7022E49
:1024C00002D1E06B012801D1012000E0002050B9C9
:1024D00000BF502080F31188BFF34F8FBFF36F8F81
:1024E00000BF00BFFEE7FFF7A1FB00BF5021EFF3E5
:1024F000118081F31188BFF34F8FBFF36F8F00BF3F
:102500000546A06BE16B884201D3022E23D194F9DA
:1025100045B0324651462046FEF701FE0BF1010060
:1025200088B9606A08B9012000E0002080B904F190
:10253000240000F061FA58B1B8F1000F08D0012072
:10254000C8F8000004E00BF1010040B284F8450037
:102550004FF0010901E04FF0000900BF85F3118839
:1025600000BF4846BDE8F09F2DE9F74183B005461E
:102570000E464FF000082C4654B900BF502080F39F
:102580001188BFF34F8FBFF36F8F00BF00BFFEE70F
:102590000EB9206C08B9012000E0002050B900BF3E
:1025A000502080F31188BFF34F8FBFF36F8F00BFB0
:1025B00000BFFEE700F002F908B9059808B901204C
:1025C00000E0002050B900BF502080F31188BFF315
:1025D0004F8FBFF36F8F00BF00BFFEE700BFFFF755
:1025E0007FFAA76BF7B131462046FEF783FD781ED0
:1025F000A063206908B9012000E0002060B904F15F
:10260000100000F0F9F938B14FF080502F49086000
:10261000BFF34F8FBFF36F8FFFF78CFA012006B027
:10262000BDE8F081059818B9FFF784FA0020F6E7B5
:10263000B8F1000F04D101A8FFF718FC4FF0010812
:10264000FFF778FAFFF7AAFCFFF74AFA94F944007B
:10265000401C10B9002084F8440094F94500401C47
:1026600010B9002084F84500FFF764FA05A901A815
:1026700000F02EF8F0B92046FEF710FFA0B104F1EB
:1026800024000599FFF704FC2046FFF7B6F800F098
:10269000FFF90028A3D14FF080500C490860BFF328
:1026A0004F8FBFF36F8F9AE72046FFF7A6F800F031
:1026B000EFF994E72046FFF7A0F800F0E9F920468B
:1026C000FEF7ECFE00288AD00020A8E704ED00E029
:1026D00070B505460C4655B900BF502080F31188EF
:1026E000BFF34F8FBFF36F8F00BF00BFFEE754B93A
:1026F00000BF502080F31188BFF34F8FBFF36F8F5F
:1027000000BF00BFFEE7FFF7EBF9124802686868F8
:10271000131A2068401C08B9002617E00E492868E3
:102720000968884204D06868904201D801260DE00B
:102730002068984207D92068C01A20602846FFF711
:1027400095FB002602E0002020600126FFF7F2F949
:10275000304670BD44000020580000202DE9FF4F96
:1027600085B0804689461746DDE912ABB800FFF711
:1027700083F8064656B15820FFF77EF804460CB1A0
:10278000266304E03046FFF7F3F900E000247CB153
:102790000020CDE900ABCDE902403A46494640462B
:1027A000089BFEF780FD2046FEF7F2FB012501E0C5
:1027B0004FF0FF35284609B0BDE8F08F054909689C
:1027C00009B9012005E00449096809B9022000E0BF
:1027D000002070474C000020680000200149086874
:1027E00070470000440000202DE9F0414FF0000840
:1027F00044480068002877D143480068451C424897
:10280000056015BB41480068006808B9012000E078
:10281000002050B900BF502080F31188BFF34F8FC4
:10282000BFF36F8F00BF00BFFEE738480768384826
:102830000068364908603648076036480068401C22
:1028400034490860FEF72CFF00BF3348006885421A
:102850003CD300BF2D480068006808B9012000E0A3
:10286000002020B14FF0FF302B4908602DE02748B1
:102870000068C068C4686668B54202D2264806602F
:1028800023E0201DFFF7E2F8A06A18B104F1180058
:10289000FFF7DCF894F82C10012088401F490968E4
:1028A00008431E490860E16A01EB81011C4A02EB02
:1028B0008100211DFFF708F91A49E06A0968C96A11
:1028C0008842C7D34FF00108C4E700BF154800682D
:1028D000C06A00EB8000124951F82000012801D99C
:1028E0004FF0010805E0FFE70F480068401C0E4963
:1028F00008600E48006808B14FF001084046BDE886
:10290000F081000068000020440000203400002016
:1029100038000020580000206000002048000020FF
:10292000AC010020300000205000002054000020A6
:1029300070B505462C460026002D55D02B48006862
:10294000844201D1012000E0002050B900BF502096
:1029500080F31188BFF34F8FBFF36F8F00BF00BFAD
:10296000FEE7E06C50B900BF502080F31188BFF340
:102970004F8FBFF36F8F00BF00BFFEE7E06C401EBC
:10298000E064A16CE06A88422ED0E06C60BB201D40
:10299000FFF75CF878B9E06A00EB8000144951F861
:1029A000200040B994F82C10012088401149096892
:1029B000814310480160A06CE062E06AC0F105004C
:1029C000A06194F82C10012088400A490968084346
:1029D00008490860E16A01EB8101054A02EB8100C8
:1029E000211DFFF771F80126304670BD3000002030
:1029F000AC0100204800002070B50646F068C468AD
:102A000054B900BF502080F31188BFF34F8FBFF33C
:102A10006F8F00BF00BFFEE704F11800FFF716F844
:102A200015480068A8B9201DFFF710F894F82C107D
:102A30000120884011490968084310490860E16A8B
:102A400001EB81010E4A02EB8100211DFFF73CF8EA
:102A500004E004F118010B48FFF736F80A49E06A70
:102A60000968C96A884204D901250120074908601C
:102A700000E00025284670BD6800002048000020C6
:102A8000AC01002010020020300000205400002083
:102A900070B5002400263648006850B900BF5020A9
:102AA00080F31188BFF34F8FBFF36F8F00BF00BF5C
:102AB000FEE7FFF715F82E480068401E2C49086015
:102AC0000846006800284FD12A48006800284BD0EB
:102AD00024E02948C068C46804F11800FEF7B6FF76
:102AE000201DFEF7B3FF94F82C10012088402349E5
:102AF0000968084321490860E16A01EB8101204A25
:102B000002EB8100211DFEF7DFFF1E49E06A096824
:102B1000C96A884202D301201B4908601648006830
:102B200008B9012000E000200028D2D00CB1FEF747
:102B3000B7FD1648056865B100BFFFF755FE10B137
:102B40000120114908606D1E002DF6D100200F49AB
:102B500008600D48006838B1012630070C4908604C
:102B6000BFF34F8FBFF36F8FFEF7E4FF304670BDAA
:102B700068000020400000201002002048000020D3
:102B8000AC01002030000020540000205000002044
:102B900004ED00E01CB50024FEF756FA0E4800686C
:102BA00058B10E48022100234FF48272CDE9001083
:102BB0000BA10D48FFF7D2FD044654B900BF5020C9
:102BC00080F31188BFF34F8FBFF36F8F00BF00BF3B
:102BD000FEE720461CBD00007400002078000020A5
:102BE000546D722053766300E11700082DE9FE430F
:102BF00004460D4616461F46DDF828804FF00009B2
:102C000054B900BF502080F31188BFF34F8FBFF33A
:102C10006F8F00BF00BFFEE71448006810B3009537
:102C200001960294062D15DAFFF7C8FD022808D197
:102C30000023424669460D480068FFF745FB814680
:102C400010E000231A46694608480068FFF73CFB7D
:102C5000814607E000233A46694604480068FFF7CA
:102C600007FC81464846BDE8FE8300007400002052
:102C70004FF04070E1EE100A7047000000000000C5
:102C80000000002F000000000700070000147F1460
:102C90007F1400242A7F2A1200626408132300365E
:102CA0004955225000000503000000001C2241008D
:102CB000000041221C000014083E08140008083ED1
:102CC0000808000000A060000008080808080000CC
:102CD00060600000002010080402003E5149453E9B
:102CE0000000427F400000426151494600214145B9
:102CF0004B31001814127F10002745454539003C20
:102D00004A494930000171090503003649494936ED
:102D100000064949291E00003636000000005636DC
:102D200000000008142241000014141414140000C0
:102D30004122140800020151090600324959513E4E
:102D4000007C1211127C007F49494936003E414106
:102D50004122007F4141221C007F49494941007FB7
:102D600009090901003E4149497A007F0808087FA6
:102D70000000417F4100002040413F01007F0814D6
:102D80002241007F40404040007F020C027F007FD4
:102D90000408107F003E4141413E007F09090906B9
:102DA000003E4151215E007F0919294600464949EC
:102DB00049310001017F0101003F4040403F001FB9
:102DC0002040201F003F4038403F00631408146338
:102DD00000070870080700615149454300007F4122
:102DE000410000552A552A55000041417F0000044A
:102DF0000201020400404040404000000102040083
:102E0000002054545478007F4844443800384444E7
:102E1000442000384444487F003854545418000873
:102E20007E0901020018A4A4A47C007F0804047891
:102E30000000447D4000004080847D00007F102819
:102E400044000000417F4000007C04180478007CAE
:102E50000804047800384444443800FC242424182E
:102E60000018242418FC007C08040408004854546A
:102E7000542000043F444020003C4040207C001C83
:102E80002040201C003C4030403C00442810284496
:102E9000001CA0A0A07C004464544C4414141414DE
:102EA00014140000000000000000000000000000FA
:102EB0000000000000F800000000000000333000B7
:102EC000000000100C06100C0600000000000000BE
:102ED000000040C07840C0784000043F04043F0434
:102EE0000400007088FC08300000001820FF211E3C
:102EF0000000F008F000E018000000211C031E2173
:102F00001E0000F00888700000001E2123241927ED
:102F1000211010160E00000000000000000000004C
:102F20000000000000E01804020000000007182064
:102F3000400000020418E0000000004020180700D4
:102F40000000404080F0804040000202010F01027A
:102F50000200000000F0000000000101011F01015B
:102F60000100000000000000000080B070000000C0
:102F7000000000000000000000000001010101014C
:102F800001010000000000000000003030000000DF
:102F900000000000000080601804006018060100B6
:102FA000000000E010080810E000000F10202010C2
:102FB0000F00001010F8000000000020203F20202B
:102FC00000000070080808887000003028242221C2
:102FD0003000003008888848300000182020201178
:102FE0000E000000C02010F8000000070424243F59
:102FF000240000F808888808080000192120201102
:103000000E0000E0108888180000000F1120201129
:103010000E0000380808C83808000000003F000013
:1030200000000070880808887000001C22212122FE
:103030001C0000E010080810E000000031222211FE
:103040000F00000000C0C000000000000030300091
:103050000000000000800000000000008060000010
:103060000000000080402010080000010204081049
:103070002000404040404040400004040404040458
:103080000400000810204080000000201008040206
:103090000100007048080808F00000000030360108
:1030A0000000C030C828E810E000071827242314C7
:1030B0000B000000C038E0000000203C2302022783
:1030C000382008F8888888700000203F20202011D0
:1030D0000E00C0300808080838000718202020100B
:1030E000080008F808080810E000203F2020201001
:1030F0000F0008F88888E8081000203F20202320CF
:10310000180008F88888E8081000203F2000030015
:103110000000C03008080838000007182020221ED0
:10312000020008F808000008F808203F21010121EA
:103130003F20000808F8080800000020203F202059
:10314000000000000808F8080800C08080807F00A8
:10315000000008F888C028180800203F2001263801
:10316000200008F8080000000000203F2020202058
:10317000300008F8F800F8F80800203F003F003F52
:10318000200008F830C00008F808203F2000071889
:103190003F00E01008080810E0000F102020201069
:1031A0000F0008F808080808F000203F210101017D
:1031B0000000E01008080810E0000F182424385020
:1031C0004F0008F8888888887000203F2000030C92
:1031D000302000708808080838000038202121229B
:1031E0001C00180808F8080818000000203F2000FC
:1031F000000008F808000008F808001F2020202020
:103200001F000878880000C83808000007380E0141
:103210000000F80800F80008F800033C0700073C2D
:103220000300081868808068180820302C03032CDD
:1032300030200838C800C83808000000203F2000AF
:10324000000010080808C83808002038262120206F
:103250001800000000FE020202000000007F404053
:103260004000000C30C000000000000000010638E3
:10327000C00000020202FE000000004040407F004B
:103280000000000004020202040000000000000030
:10329000000000000000000000008080808080802E
:1032A0008080000202040000000000000000000016
:1032B000000000008080808000000019242222226B
:1032C0003F2008F8008080000000003F11202011FE
:1032D0000E000000008080800000000E11202020E1
:1032E0001100000000808088F800000E11202010DE
:1032F0003F200000808080800000001F22222222C8
:103300001300008080F0888888180020203F20204B
:1033100000000000808080808000006B9494949373
:10332000600008F8008080800000203F210000201D
:103330003F2000809898000000000020203F2020BF
:103340000000000000809898000000C08080807F0E
:10335000000008F8000080808000203F24022D300B
:103360002000000808F8000000000020203F202076
:1033700000008080808080808000203F20003F20EF
:10338000003F8080008080800000203F21000020DE
:103390003F200000808080800000001F202020202F
:1033A0001F00808000808000000080FFA12020118D
:1033B0000E000000008080808000000E112020A000
:1033C000FF80808080008080800020203F212000BE
:1033D00001000000808080808000003324242424A9
:1033E0001900008080E0808000000000001F202085
:1033F00000008080000000808000001F202020103E
:103400003F20808080000080808000010E30080610
:10341000010080800080008080800F300C030C3021
:103420000F0000808000808080000020312E0E314F
:103430002000808080000080808080818E7018064F
:10344000010000808080808080000021302C2221BB
:10345000300000000000807C020200000000003FFD
:10346000404000000000FF00000000000000FF00DE
:1034700000000002027C800000000040403F00008D
:103480000000000601010202040400000000000028
:1034900000000000B434000800000020A400000078
:1034A000C401000858350008A40000205C34010065
:1034B000E001000800000000000000000000000023
:1034C000007A030A0000000000000000010203046B
:1034D00006070809000000000000000000000000CE
:1034E00000000000000000000000000000000000DC
:1034F00000000000000000000000000000000000CC
:1035000000000000000000000000000000000000BB
:1035100000000000000000000000000000000000AB
:10352000000000000000000000000000000000009B
:10353000000000000000000000000000000000008B
:10354000000000000000000000000000AAAAAAAAD3
:08355000000000000000000073
:040000050800018965
:00000001FF
