:020000040800F2
:1000000000390120E9020008CD070008BF050008FB
:10001000C9070008210500080B0E000800000000B9
:10002000000000000000000000000000290200089D
:10003000250500080000000085020008AD0C00083E
:100040000303000803030008030300080303000878
:100050000303000803030008030300080303000868
:100060000303000803030008030300080303000858
:100070000303000803030008030300080303000848
:100080000303000803030008030300080303000838
:100090000303000803030008030300080303000828
:1000A0000303000803030008030300080303000818
:1000B0000303000803030008030300080303000808
:1000C00003030008030300080303000803030008F8
:1000D00003030008250D00080303000803030008BC
:1000E00003030008030300080303000803030008D8
:1000F00003030008030300080303000803030008C8
:1001000003030008030300080303000803030008B7
:1001100003030008030300080303000803030008A7
:100120000303000803030008030300080303000897
:100130000303000803030008030300080303000887
:100140000303000803030008030300080303000877
:100150000303000803030008030300080303000867
:100160000303000803030008030300080303000857
:100170000303000803030008030300080303000847
:10018000030300080303000800F002F800F03CF845
:100190000AA090E8000C82448344AAF10107DA45E2
:1001A00001D100F031F8AFF2090EBAE80F0013F0F8
:1001B000010F18BFFB1A43F0010318476843000002
:1001C00088430000103A24BF78C878C1FAD8520793
:1001D00024BF30C830C144BF04680C6070470000C1
:1001E0000023002400250026103A28BF78C1FBD840
:1001F000520728BF30C148BF0B6070471FB502F0DF
:10020000ABFD1FBD10B510BD00F05BF91146FFF747
:10021000F5FF00F0B7FE00F079F903B4FFF7F2FF45
:1002200003BC00F020FE00002C4B19680868B0E801
:10023000F04F80F30988BFF36F8F4FF0000080F319
:10024000118870470000000008480068006880F3CB
:1002500008884FF0000080F3148862B661B6BFF3DF
:100260004F8FBFF36F8F00DF00BF00BF08ED00E0CE
:10027000DFF80C00016841F470010160704700BFB5
:1002800088ED00E0EFF30980BFF36F8F134B1A681E
:100290001EF0100F08BF20ED108A20E9F04F10600B
:1002A00009B44FF0500080F31188BFF34F8FBFF3B4
:1002B0006F8F01F0EFFE4FF0000080F3118809BC52
:1002C00019680868B0E8F04F1EF0100F08BFB0ECD6
:1002D000108A80F30988BFF36F8F704730000020C9
:1002E000EFF3058070470000094880470948004740
:1002F000FEE7FEE7FEE7FEE7FEE7FEE7FEE7FEE7D6
:10030000FEE7FEE704480549054A064B7047000032
:10031000BD0C0008890100080033012000390120CC
:1003200000350120003501207047032A40F230805B
:1003300010F0030C00F0158011F8013BBCF1020F26
:10034000624498BF11F801CB00F8013B38BF11F8A7
:10035000013BA2F1040298BF00F801CB38BF00F8BE
:10036000013B11F0030300F05380083AC0F008800D
:1003700051F8043B083A51F804CBA0E80810F5E71F
:10038000121D5CBF51F8043B40F8043BAFF3008002
:10039000D20724BF11F8013B11F801CB48BF11F877
:1003A000012B24BF00F8013B00F801CB48BF00F847
:1003B000012B704702F0FF0343EA032242EA0242A4
:1003C00000F002B84FF000020429C0F0128010F0D3
:1003D000030C00F05180CCF1040CBCF1020F18BFEB
:1003E00000F8012BA8BF20F8022BA1EB0C0100F0B4
:1003F00043B85FEAC17C24BF00F8012B00F8012B51
:1004000048BF00F8012B704770477047704770472E
:1004100010B5203AC0F00B80B1E81850203AA0E89F
:100420001850B1E81850A0E81850BFF4F5AF5FEAD3
:10043000027C24BFB1E81850A0E8185044BF18C986
:1004400018C0BDE810405FEA827C24BF51F8043B2D
:1004500040F8043B08BF7047D20728BF31F8023B81
:1004600048BF11F8012B28BF20F8023B48BF00F815
:10047000012B70474FF0000200B513469446964694
:10048000203922BFA0E80C50A0E80C50B1F12001A7
:10049000BFF4F7AF090728BFA0E80C5048BF0CC055
:1004A0005DF804EB890028BF40F8042B08BF7047B3
:1004B00048BF20F8022B11F0804F18BF00F8012B25
:1004C0007047754600F028F8AE4605006946534669
:1004D00020F00700854618B020B5FFF713FFBDE8F0
:1004E00020404FF000064FF000074FF000084FF09B
:1004F000000B21F00701AC46ACE8C009ACE8C0092C
:10050000ACE8C009ACE8C0098D4670470446AFF3BB
:1005100000802046FFF781FE004870479C32012092
:1005200000BFFEE77047F0B50A4600210023002413
:1005300000BF3DE0012505FA01F3156805EA030453
:100540009C4234D105684F000326BE40B543056088
:1005500015794E00B5400668354305601579012DC3
:1005600002D01579022D16D185684F000326BE40B2
:10057000B543856055794E00B54086683543856042
:10058000456801268E40B5434560456896798E40A2
:10059000B6B235434560C5684F000326BE40B5433B
:1005A000C560D5794E00B540C6683543C560491C65
:1005B0001029BFD3F0BD418370470183704700BF4E
:1005C000FEE700001CB50121022000F0D5FA4FF42F
:1005D0004060009001208DF8040000208DF8060096
:1005E00003208DF8050001208DF8070069460548B5
:1005F000FFF799FF0120044908600449C1F8AC02E3
:100600001CBD000000040240A8824042008040421D
:1006100070B504461548006820F44000134908608E
:100620000846006840F48000086000201049086017
:10063000002517E0E0090E49091D08606006040E58
:10064000022000F055FC01200A49C1F8A80202204E
:1006500000F04EFC002006490860022000F048FC33
:10066000681CC5B2082DE5DB70BD00000004024027
:10067000A88240420080404210B50F48006820F434
:1006800040000D4908600846006840F4800008609A
:1006900001200A4908600A49C1F8A802042000F0B4
:1006A00027FC002005490860042000F021FC002000
:1006B0000349C1F8A80210BD00040240AC824042C8
:1006C0000080404210B50F48006820F440000D49FA
:1006D00008600846006840F48000086000200A496D
:1006E00008600A49C1F8AC02042000F001FC0120B6
:1006F000054908600549C1F8AC02042000F0F8FB88
:1007000010BD000000040240A88240420080404228
:1007100010B500241348006820F440001149086017
:1007200008460068086001200F49086000F0E0FBFF
:1007300001200E49C1F8A80200F0DAFB07E0601CB6
:10074000C4B2FA2C03DDFFF7BDFF012010BD06483F
:10075000803800680028F2D10349091F086000BFF3
:10076000F4E7000000040240AC82404200804042B6
:100770001CB50121032000F0FFF94FF40040009068
:1007800001208DF8040000208DF8060003208DF86C
:10079000050001208DF8070069460948FFF7C3FEF0
:1007A0001020009069460748FFF7BDFE4FF46041F6
:1007B0000348FFF700FF10210248FFF7FCFE1CBDB5
:1007C000000002400004024000BFFEE77047000046
:1007D00010B54FF480610348FFF7F4FD00F0E4F832
:1007E00010BD0000A400002010B500218D2000F0F5
:1007F000B6F90021142000F0B2F90021AF2000F07A
:10080000AEF910BDF0B5144600267F2801DC3F2963
:1008100000DDF0BD0B46CF1701EB5777C7F3C702DA
:10082000CF1701EB5777FF10A1EBC707FDB20123EC
:10083000AB40DEB24CB10A4B03EBC0039B5C3343CD
:10084000074F07EBC007BB5408E0054B03EBC003A1
:100850009B5CB343024F07EBC007BB5400BFD8E714
:10086000A40000201CB50121062000F085F94FF4FA
:100870004060009001208DF8040002208DF80500F2
:1008800000208DF8060069464548FFF74CFE202001
:10089000009069464348FFF746FEFFF793FE20218C
:1008A0004048FFF788FEC82000F002FB20213D48A9
:1008B000FFF783FE4FF4FA7000F0FAFA0021AE2041
:1008C00000F04DF90021084600F049F90021102000
:1008D00000F045F90021402000F041F90021B0204E
:1008E00000F03DF90021812000F039F90021FF20BE
:1008F00000F035F90021A12000F031F90021A620F7
:1009000000F02DF90021A82000F029F900213F2056
:1009100000F025F90021C82000F021F90021D320A2
:1009200000F01DF90021084600F019F90021D5203A
:1009300000F015F90021802000F011F90021D820E5
:1009400000F00DF90021052000F009F90021D9205F
:1009500000F005F90021F12000F001F90021DA2072
:1009600000F0FDF80021122000F0F9F80021DB2052
:1009700000F0F5F80021302000F0F1F800218D2082
:1009800000F0EDF80021142000F0E9F80021AF207C
:1009900000F0E5F8FFF728FFFFF71AFF1CBD000085
:1009A000000402400008024070B500241BE004F17E
:1009B000B000002100F0D3F80021084600F0CFF885
:1009C0000021102000F0CBF8002508E0074901EBDA
:1009D000C501085D012100F0C2F8681CC5B2802D78
:1009E000F4DB601CC4B2082CE1DB70BDA400002065
:1009F0002DE9F84F80460F4616461C46BA4620465B
:100A0000E31704EB5373DB1021464FEAE47C04EB5D
:100A10005C7C4FEAEC0CA4EBCC0CBCF1000F02D0D8
:100A20004FF0010C01E04FF0000C6344224604EB50
:100A3000D27C4FEA6C0C03FB0CF303F0FF0BA6F126
:100A40002000C6B200254EE00C2C07D106EB460074
:100A5000274901EB8000405D009013E0102C05D188
:100A6000244800EB0610405D00900BE0182C07D1E5
:100A700006EBC600204901EB8000405D009001E0DC
:100A8000BDE8F88F4FF0000927E0009800F08000E3
:100A900028B1394640460A9AFFF7B4FE09E00A98A1
:100AA00008B9012000E00020024639464046FFF721
:100AB000A9FE00984006000E0090781CC7B2A7EB74
:100AC0000A00A04205D1574608F1010000F0FF08D6
:100AD00006E009F1010000F0FF09B9F1080FD4DBCD
:100AE00000BF681CC5B25D45AEDB00BFC8E70000B3
:100AF000622D0008D6310008C6370008F8B5064652
:100B00000F4615461C4621E004EBD4714910C1F193
:100B10008001B14202DA00263819C7B2C4F14000A0
:100B2000B84204DA002006460746FFF751FE0120CE
:100B300000902A78234639463046FFF759FF204671
:100B400004EBD07106EB6101CEB26D1C28787E28D3
:100B500002DC28782028D7DAFFF726FFF8BD70B529
:100B600004460D461DB1E0B200F067F902E0E0B2C4
:100B700000F04DF970BD000029B1064A1268024329
:100B8000044B1A6004E0034A12688243014B1A6066
:100B900070470000303802400CB5002001900090F2
:100BA0003448006840F480303249086000BF314862
:100BB000006800F4003000900198401C01900098FB
:100BC00018B90198B0F5A04FF1D12A48006800F497
:100BD000003010B10120009001E00020009000984A
:100BE000012846D123484030006840F08050214918
:100BF000403108602048006840F440401E490860C9
:100C00001C48083000681B49083108600846006825
:100C100040F4004008600846006840F4A0500860B6
:100C20001648091F0860081F006840F08070091FFF
:100C3000086000BF0F48006800F000700028F9D07D
:100C400040F205700E4908600A480830006820F03C
:100C500003000849083108600846006840F00200B7
:100C6000086000BF03480830006800F00C00082846
:100C7000F8D10CBD00380240007000400854400715
:100C8000003C0240042808D14FF0E021096941F0FE
:100C900004014FF0E022116107E04FF0E021096903
:100CA00021F004014FF0E0221161704710B501F00E
:100CB000F9FD012801D001F0E7FA10BD10B5154883
:100CC000006840F47000134908601348006840F061
:100CD00001001149086000200F49083108600E48E2
:100CE00000680E4908400C4908600D48091D08605D
:100CF000081F006820F48020091F086000200649B2
:100D00000C310860FFF748FF4FF00060014980395F
:100D1000086010BD88ED00E000380240FFFFF6FEDD
:100D20001030002410B540F225511D4800F03EF867
:100D300010B31B4800F064F8C4B21A48008800F4ED
:100D40000040C8B91748008800F4804060B10A2C00
:100D500003D000201349088020E01248008840F4A6
:100D600000401049088019E00D2C06D10D4800887C
:100D700040F480400B49088010E00A480088C0F326
:100D80000D0009490C5407480088401C054908809B
:100D900008460088C72801DD0020088010BD00003B
:100DA000001001402C000020A404002070B5024671
:100DB000002400230025002040F66A16B14200D12D
:100DC00000BFC1F3421501F01F03012606FA03F329
:100DD000012D02D19689334006E0022D02D1168AF8
:100DE000334001E0968A33400C12012606FA04F4DF
:100DF0001688344013B10CB1012000E0002070BD12
:100E000001468888C0F30800704700BFFEE710B5B0
:100E10000446FFF731FC7820FFF7FAFBFFF778FC78
:100E20000020FFF7F5FBFFF773FC2046FFF7F0FB10
:100E3000FFF76EFCFFF746FC10BD10B50446FFF748
:100E40001BFC7820FFF7E4FBFFF762FC4020FFF774
:100E5000DFFBFFF75DFC2046FFF7DAFBFFF758FCEE
:100E6000FFF730FC10BD00BF7047000070B50446AE
:100E70000420FFF707FF0C48046025464FF47A7002
:100E800045430120094908604FF0E020006940F027
:100E900002004FF0E021086108464561006940F01A
:100EA0000100086170BD0000200000202400002027
:100EB00070B5044601F0F6FC012810D00B4800681C
:100EC000844206D309480068B4FBF0F5284600F0D8
:100ED00099FF06480068B4FBF0F100FB11444FF4A1
:100EE0007A7104FB01F000F003F870BD24000020CB
:100EF00070B5034600224FF0E02675690D4E366846
:100F000003FB06F44FF0E026B16910E04FF0E02655
:100F1000B06988420BD0884202D20E1A324402E0F5
:100F20002E1A0E4432440146A24200D300E0EDE7FF
:100F300000BF70BD2000002008E005480068C043E5
:100F40000449C1F89002642000F05CFFF5E700005E
:100F500090824042008040420EE000200749086035
:100F60004FF4FA7000F04EFF01200549C1F8BC02B1
:100F70004FF4FA7000F046FFEFE70000BC02404279
:100F8000000040421CB5A820FFF770FFFFF7F0FB00
:100F9000FFF768FCFFF71CFC102309A2002108469C
:100FA000FFF7ACFD0B48012100238022CDE90010A2
:100FB00009A10C4801F046FC01F01AF800201CBD04
:100FC00020204672656552544F532044656D6F2052
:100FD000200000000000002073746172745F74616F
:100FE000736B0000C91A00082DE9F04105460E4652
:100FF0001C4807681C480068001D00F09BFD50B9A4
:101000001948006890F82C10012088401749096899
:10101000814316480160681C38B936B1124801682E
:10102000091D134800F0C4FD1AE07C190E48006841
:101030004460BC4207D20C480168091D0D48006895
:1010400000F09CFD0CE008480168091D0A48006892
:1010500000F094FD09480068844201D2074804600A
:10106000BDE8F0814400002030000020480000204E
:1010700038060020380000203400002060000020E6
:1010800010B5044600F0A0FD24480068401C234928
:1010900008602348006840B9214804600846006899
:1010A00001280DD100F0DAF90AE01E48006838B9CD
:1010B0001B480068C06AE16A884201D81848046089
:1010C00019480068401C18490860084600682064F8
:1010D00094F82C10012088401449096808431349EA
:1010E0000860E16A01EB8101114A02EB8100211DD8
:1010F00000F05EFD00F092FD0A48006868B1084803
:101100000068C06AE16A884207D24FF080500949FE
:101110000860BFF34F8FBFF36F8F10BD40000020FA
:10112000300000204C0000205C000020480000201F
:10113000AC05002004ED00E010B500F045FD1048BE
:101140000068D0B90F4800F009FD0F4800F006FD17
:101150000C480E4908600C480D49086000220C211B
:101160000A2001F0ABF8064908600846006820B183
:1011700008A10348006800F009FE00F04FFD10BD13
:101180007400002074060020880600206C000020F7
:1011900070000020546D72510000000010B516E080
:1011A00000F012FD0C48C068C468201D00F0C2FCAD
:1011B0000A480068401E0949086009480068401E46
:1011C0000749086000F02AFD204600F05FF8044857
:1011D00000680028E4D110BD240600204000002053
:1011E0003C00002070B504460D46206C70B1216CA7
:1011F000E0680144E160D4E90210884201D321682B
:10120000E1602846226CE168FFF78FF870BD2DE998
:10121000F04104460F4615464FF00008A66B206CBF
:1012200048B9206800282CD1A06801F0F5FB804661
:101230000020A06025E07DB93946226C6068FFF788
:1012400074F8216C606808446060D4E90101884248
:1012500017D32068606014E03946226CE068FFF71D
:1012600064F8216CE068411AE1602168E068884216
:1012700003D2216CA068411AE160022D01D106B1B0
:10128000761E701CA0634046BDE8F08110B5044690
:10129000206B00F0E1FC204600F0DEFC10BD0000F9
:1012A0000146084A126812680AB9012200E00022C9
:1012B0000A600A6822B9034A1268D268106800E01E
:1012C000002070476C00002030B54FF4963317486B
:1012D00000F007042CB1C01D20F00700134C041BC4
:1012E0001B1B0246124C22600024114D6C60D0186A
:1012F000083820F007000F4C206000240D4D2D68A9
:101300006C600C4D2D682C601146441A4C60094CE1
:1013100024680C60084D4C682C60084D4C682C60AB
:101320004FF00044064D2C6030BD00009C060020AC
:101330008000002088000020900000208C00002009
:101340009400002000BFFFF729FF0648006801282D
:10135000F9D94FF0805004490860BFF34F8FBFF3B5
:101360006F8FF0E7AC05002004ED00E02DE9F041BF
:1013700006460D4617469846069C0DB9246000E0C7
:101380002760E66325640121204600F0C5FF84F84C
:101390004C80BDE8F0812DE9F05F82460E46904614
:1013A0009B460A9F0C9C56B900BF502080F31188C1
:1013B000BFF34F8FBFF36F8F00BF00BFFEE74FEA51
:1013C0008801A522206BFEF7F5FFA8F10100216B33
:1013D00001EB800929F0070909F0070008B901208D
:1013E00000E0002050B900BF502080F31188BFF307
:1013F0004F8FBFF36F8F00BF00BFFEE7002507E0F0
:10140000715D04F134004155705D00B902E06D1C5E
:101410000A2DF5D300BF00213D200155052F00D333
:101420000427E762A7640020E064201D00F0A3FB0E
:1014300004F1180000F09FFB2461C7F10500A061D2
:1014400064625A465146484600F028FB20600B98DB
:1014500008B10B980460BDE8F09F000010B50024AF
:1014600007E004EB84010F4A02EB810000F076FBF9
:10147000641C052CF5D30C4800F070FB0B4800F001
:101480006DFB0B4800F06AFB0A4800F067FB0A4856
:1014900000F064FB044809490860044808490860F2
:1014A00010BD0000AC0500204C06002060060020A6
:1014B00010060020240600203806002034000020FA
:1014C0003800002010B50146164800E000680368A7
:1014D0008B42FBD30246436813448B4204D14368DA
:1014E0004C682344436001460A464B681344046831
:1014F000A34211D10C4C03682468A34208D04B6866
:101500000468646823444B6003681B680B6005E053
:10151000054B1B680B6001E003680B60884200D03C
:10152000016010BD80000020880000202DE9F041FE
:1015300004460D4616461F464FF0000865602461BC
:10154000B5420CD8F01BA169884202D34FF00108C4
:1015500011E0211D0948006800F010FB0BE0BE42BD
:1015600004D2BD4202D34FF0010804E0211D04481B
:10157000006800F003FB4046BDE8F08170000020E9
:101580006C00002070B5054600F01EFBA86B08B982
:10159000012400E0002400F041FB204670BD70B53E
:1015A000054600F011FBA86BE96B884201D10124CC
:1015B00000E0002400F032FB204670BDF8B505467F
:1015C0000F4616480068C068C468201D00F0B2FAD3
:1015D000E06901281DD1A06941192B463A462046F1
:1015E000FFF7A4FFA8B1002003462A460146009059
:1015F000204601F06FFB064656B900BF502080F32D
:101600001188BFF34F8FBFF36F8F00BF00BFFEE79E
:1016100000BF2046616A8847F8BD00006C000020CA
:1016200070B586B06AE00398002867DB059C6069A6
:1016300008B9012000E0002010B9201D00F07AFA5E
:1016400002A800F0BBF8054603980A2854D2DFE848
:1016500000F009050731334F0608323400BF00BFE0
:1016600000BF00BF0498A269811803462A4620469D
:10167000FFF75CFFE8B12046616A8847E06901280E
:1016800017D1002000900498A16942180023194640
:10169000204601F01FFB064656B900BF502080F3DC
:1016A0001188BFF34F8FBFF36F8F00BF00BFFEE7FE
:1016B00000BF22E000BF20E000BF0498A061A06945
:1016C00008B1012000E0002050B900BF502080F395
:1016D0001188BFF34F8FBFF36F8F00BF00BFFEE7CE
:1016E000A06941192B462A462046FFF71FFF04E058
:1016F000204600F0B1FA00E000BF00BF002203A9BD
:101700000348006800F0A4FF00288CD106B070BD2B
:1017100074000020F8B505460C4600F0B3FC68469E
:1017200000F04CF80646009820BB44B9B54206D8F4
:1017300001F022FA31462846FFF740FF1CE03CB199
:101740000E480068006808B9012000E00020044647
:10175000A91B22460A48006800F02EFB01F00CFA93
:1017600050B94FF0805007490860BFF34F8FBFF367
:101770006F8F01E001F000FAF8BD0000700000205A
:101780007400002004ED00E00A490968096809B9FD
:10179000012100E0002121B14FF0FF31064A116024
:1017A00006E004490968C968C868034A41681160CD
:1017B00070470000340000206000002070B504462F
:1017C00001F080F8054607480068854204D200F021
:1017D0000BF80120206001E0002020600148056036
:1017E000284670BD7C0000202DE9F84332E02448F3
:1017F0000068C068056822480068C068C468201D89
:1018000000F098F92046616A8847E069012821D1F3
:10181000A0694619AE4207D966602461211D1848A7
:10182000006800F0ABF915E0002003462A460146A7
:101830000090204601F04EFA074657B900BF5020ED
:1018400080F31188BFF34F8FBFF36F8F00BF00BFCE
:10185000FEE700BF0A480068006808B9012000E000
:1018600000200028C3D00648D0F800800548006852
:10187000034908600348C0F80080BDE8F883000011
:101880006C000020700000200E480068401C08B961
:10189000012000E0002050B900BF502080F31188E3
:1018A000BFF34F8FBFF36F8F00BF00BFFEE700BFD6
:1018B000502080F31188BFF34F8FBFF36F8F00BFAD
:1018C00000BFFEE79800002008B500BF6846FFF79C
:1018D000E7FC044620460099FFF71CFFFFF7A0FE37
:1018E000F4E770B5044600F06FF994F9455010E044
:1018F000606A08B9012000E0002038B904F1240032
:1019000001F0EEF818B100F031FB00E003E0681ED2
:1019100045B2002DECDC00BFFF2084F8450000F04C
:101920007DF900F051F994F9445010E0206908B9AC
:10193000012000E0002048B904F1100001F0D0F8C7
:1019400008B100F013FB681E45B200E001E0002D75
:10195000ECDC00BFFF2084F8440000F05FF970BDAC
:101960002DE9F04104464FF0000800F08BFB46489B
:10197000006808B9FFF7A8FC444800682040002828
:101980006BD1D4B1083404F00700B0B104F0070003
:10199000C0F10800044404F0070008B9012000E089
:1019A000002050B900BF502080F31188BFF34F8F43
:1019B000BFF36F8F00BF00BFFEE7002C4DD034484F
:1019C0000068844249D8334E3046056801E02E460F
:1019D0002D686868A04202D228680028F7D12A48FA
:1019E0000068854239D0306800F108082868306006
:1019F0006868001B102819D92F1907F0070008B9CB
:101A0000012000E0002050B900BF502080F3118871
:101A1000BFF34F8FBFF36F8F00BF00BFFEE7686853
:101A2000001B78606C603846FFF74CFD1849686809
:101A30000968081A164908600846006816490968C6
:101A4000884203D212480068134908600F49686849
:101A50000968084368600020286001F08DF808F0EC
:101A6000070008B9012000E0002050B900BF502055
:101A700080F31188BFF34F8FBFF36F8F00BF00BF9C
:101A8000FEE74046BDE8F081880000209400002079
:101A90008C0000208000002090000020001F4FF0EC
:101AA00080730360001F21F001030360001F054BDA
:101AB000036014380260001F6FF0020303602038D7
:101AC00070470000891800081CB5044600F07CF837
:101AD0000D48022100233222CDE900100BA10E484F
:101AE00000F0B0FE0D48032100233222CDE90010A2
:101AF0000BA10E4800F0A6FE0D48006800F0B0F9FA
:101B000000F08CF81CBD0000040000206C656430FF
:101B10005F7461736B000000390F0008080000203B
:101B20006C6564315F7461736B000000590F0008CD
:101B30000000002001460A69D1E901309860D1E92E
:101B4000010358605068884201D1886850600020C5
:101B500008611068401E10601068704700F10801AD
:101B600041604FF0FF31816000F10801C160016107
:101B700000210160704700210161704710B50246E5
:101B80000B685C1C0CB9106907E002F1080000E06A
:101B90004068446824689C42FAD944684C604C68A8
:101BA000A160886041600A611468641C146010BD03
:101BB00042684A6093688B609368596091600861DD
:101BC00003685B1C0360704700BF502080F31188DE
:101BD000BFF34F8FBFF36F8F00BF0E480068401CEC
:101BE0000C49086008460068012812D10A480068BC
:101BF000C0B208B9012000E0002050B900BF502059
:101C000080F31188BFF34F8FBFF36F8F00BF00BF0A
:101C1000FEE770479800002004ED00E00D480068E2
:101C200050B900BF502080F31188BFF34F8FBFF32E
:101C30006F8F00BF00BFFEE706480068401E0549E1
:101C400008600846006820B9002080F3118800BFB2
:101C500000BF70479800002070B506463546002E3C
:101C60003FD0083D2C461F4960680968084008B10C
:101C7000012000E0002050B900BF502080F31188FF
:101C8000BFF34F8FBFF36F8F00BF00BFFEE7206829
:101C900008B9012000E0002050B900BF502080F3B7
:101CA0001188BFF34F8FBFF36F8F00BF00BFFEE7F8
:101CB0000C4960680968084098B1206888B90949EA
:101CC000606809688843606000F0DCF90649606874
:101CD00009680844044908602046FFF7F3FB00F058
:101CE0004BFF70BD940000208C00002000204FF0BE
:101CF000E02108618861064800684FF47A71B0FB02
:101D0000F1F0401E4FF0E021486107200861704764
:101D10000C00002070B5FEF7E3FA0446102C16D331
:101D200004F1E02090F8F05315480078854201DB7B
:101D3000012000E0002050B900BF502080F311883E
:101D4000BFF34F8FBFF36F8F00BF00BFFEE70D489B
:101D5000006800F4E0600C490968884201D801205D
:101D600000E0002050B900BF502080F31188BFF37D
:101D70004F8FBFF36F8F00BF00BFFEE770BD000045
:101D80009C0000200CED00E0A00000200246002096
:101D90000BE0084B53F8303033B9064B43F83010A2
:101DA00003EBC0035A6002E0401C0828F1D300BFD7
:101DB000704700006C0500202DE9F04105460E46F5
:101DC00017462C46FFF700FF94F94400401C10B959
:101DD000002084F8440094F94500401C10B900200C
:101DE00084F84500FFF71AFFA06B28B93A46314640
:101DF00004F1240000F0DCF82046FFF772FDBDE896
:101E0000F081000070B504460025D4B11248006886
:101E100008B9012000E0002050B900BF502080F335
:101E20001188BFF34F8FBFF36F8F00BF00BFFEE776
:101E300000F028F900212046FFF7D6F800F09CFEBC
:101E400005463DB94FF0805004490860BFF34F8FFD
:101E5000BFF36F8F70BD00006800002004ED00E04C
:101E600070B50546FFF7B0FE15B93048006800E0D0
:101E700028460446201DFFF75DFE78B9E06A00EBB6
:101E800080002B4951F8200040B994F82C10012013
:101E9000884028490968814326480160A06A18B132
:101EA00004F11800FFF746FE23480068401C224951
:101EB00008601E480068844209D1211D1F48FFF7B1
:101EC00077FE1F480068401C1D49086009E01D4856
:101ED0000068401E1B4908602046FFF7D7F9FFF74E
:101EE00053FCFFF79BFE18480068E8B10F480068F4
:101EF000844219D11548006808B9012000E000208B
:101F000050B900BF502080F31188BFF34F8FBFF34B
:101F10006F8F00BF00BFFEE74FF080500C49086094
:101F2000BFF34F8FBFF36F8F70BD000030000020F4
:101F3000AC050020480000205C00002024060020A2
:101F40003C000020400000204C00002068000020E1
:101F500004ED00E003490968016003490968416034
:101F60007047000058000020440000200120014973
:101F7000086070475400002070B504460D4654B9FF
:101F800000BF502080F31188BFF34F8FBFF36F8FD6
:101F900000BF00BFFEE70548016818312046FFF783
:101FA000EDFD01212846FFF71FF870BD300000202D
:101FB00070B505460E46144655B900BF502080F353
:101FC0001188BFF34F8FBFF36F8F00BF00BFFEE7D5
:101FD0000648016818312846FFF7EAFD0CB14FF0BA
:101FE000FF3621463046FEF7FFFF70BD300000206F
:101FF0001CB51D4800210B468222CDE900101BA113
:102000001C4800F01FFC0446012C02D100F036FEF3
:102010000446012C15D100BF502080F31188BFF376
:102020004F8FBFF36F8F00BF4FF0FF301249086032
:1020300001201249086000201149086000F070F882
:1020400010E0601C08B1012000E0002050B900BF82
:10205000502080F31188BFF34F8FBFF36F8F00BF05
:1020600000BFFEE71CBD00006400002049444C4551
:102070000000000045130008600000204C00002014
:102080004400002002480068401C01490860704775
:10209000680000201D48006818B101201C49086034
:1020A00032E000201A4908601A480068B0FA80F04F
:1020B000C0F11F0101EB8100174A52F8200008B15E
:1020C000012000E0002050B900BF502080F31188AB
:1020D000BFF34F8FBFF36F8F00BF00BFFEE701EB71
:1020E00081020D4B03EB820042685268426000F1AE
:1020F00008024368934202D14268526842604268D3
:10210000D268064B1A6000BF7047000068000020CC
:102110005400002048000020AC05002030000020C2
:102120001CB5524800685249884201D0012000E0A5
:10213000002050B900BF502080F31188BFF34F8FAB
:10214000BFF36F8F00BF00BFFEE7484800684849F3
:10215000491E884201D0012000E0002050B900BF94
:10216000502080F31188BFF34F8FBFF36F8F00BFF4
:1021700000BFFEE73F49084600780190FF200A466D
:1021800010700846007800909DF8000000F0F00004
:102190009DF80020904201D1012000E0002050B9BC
:1021A00000BF502080F31188BFF34F8FBFF36F8FB4
:1021B00000BF00BFFEE79DF8000000F050002E4A6F
:1021C000107007202D4A106009E02C480068401E5E
:1021D0002A4A10609DF800004006000E00909DF80D
:1021E000000000F080008028EFD024480068C0F193
:1021F0000700042801D1012000E0002050B900BFF1
:10220000502080F31188BFF34F8FBFF36F8F00BF53
:1022100000BFFEE7194800680002184A1060104627
:10222000008800F4E0601060124A019810700F48B6
:102230002030006840F470000C49203108600846E6
:10224000006840F070400860FFF750FD00200C4926
:102250000860FEF70DF80B48006840F0404009495F
:102260000860FDF7F1FF00201CBD000000ED00E05C
:1022700071C20F4100E400E09C000020A00000209B
:102280009800002034EF00E010B500BF502080F32C
:102290001188BFF34F8FBFF36F8F00BF00F018FBA3
:1022A00018B14FF080500449086000BF002080F34F
:1022B000118800BF10BD000004ED00E02DE9F843D7
:1022C00005460E4690460DB1012000E0002050B9B1
:1022D00000BF502080F31188BFF34F8FBFF36F8F83
:1022E00000BF00BFFEE70EB9002701E005FB06F7BF
:1022F00007F15000FFF734FB04464CB1A14609F149
:10230000500943464A46314628460094FFF72EF8C6
:102310002046BDE8F883000070B505460E462C4601
:1023200054B900BF502080F31188BFF34F8FBFF323
:102330006F8F00BF00BFFEE7FFF746FCD4E90F1226
:10234000206801FB0200A0600020A063206860609C
:10235000E06B401E226C216800FB0211E160FF204F
:1023600084F8440084F845009EB9206908B901202A
:1023700000E00020A8B904F1100000F0B1FB80B12A
:102380004FF0805009490860BFF34F8FBFF36F8F44
:1023900007E004F11000FFF7E1FB04F12400FFF770
:1023A000DDFBFFF73BFC012070BD000004ED00E009
:1023B0002DE9FF4383B0064688461D464FF00009CD
:1023C000344654B900BF502080F31188BFF34F8FBB
:1023D000BFF36F8F00BF00BFFEE7B8F1000F01D160
:1023E000206C08B9012000E0002050B900BF502047
:1023F00080F31188BFF34F8FBFF36F8F00BF00BF13
:10240000FEE7022D02D1E06B012801D1012000E09E
:10241000002050B900BF502080F31188BFF34F8FC8
:10242000BFF36F8F00BF00BFFEE700F03BFA08B9B3
:10243000059808B9012000E0002050B900BF5020E5
:1024400080F31188BFF34F8FBFF36F8F00BF00BFC2
:10245000FEE700BFFFF7B8FBA06BE16B884201D33A
:10246000022D28D12A4641462046FEF7D0FE0746D7
:10247000606A08B9012000E0002068B904F1240076
:1024800000F02EFB88B14FF0805032490860BFF356
:102490004F8FBFF36F8F08E03FB14FF080502D4951
:1024A0000860BFF34F8FBFF36F8FFFF7B7FB0120BB
:1024B00007B0BDE8F083059818B9FFF7AFFB00201F
:1024C000F6E7B9F1000F04D101A8FFF743FD4FF083
:1024D0000109FFF7A3FBFFF7D5FDFFF775FB94F9A3
:1024E0004400401C10B9002084F8440094F94500D1
:1024F000401C10B9002084F84500FFF78FFB05A9A8
:1025000001A800F059F9F0B92046FFF748F8A0B14A
:1025100004F110000599FFF72FFD2046FFF7E1F9C0
:1025200000F02AFB002895D14FF08050094908603F
:10253000BFF34F8FBFF36F8F8CE72046FFF7D1F9C2
:1025400000F01AFB86E72046FFF7CBF900F014FBFA
:102550000020ADE704ED00E02DE9F05F07468A4674
:1025600090461E463C4654B900BF502080F3118867
:10257000BFF34F8FBFF36F8F00BF00BFFEE7BAF10D
:10258000000F01D1206C08B9012000E0002050B9F3
:1025900000BF502080F31188BFF34F8FBFF36F8FC0
:1025A00000BF00BFFEE7022E02D1E06B012801D17F
:1025B000012000E0002050B900BF502080F31188B6
:1025C000BFF34F8FBFF36F8F00BF00BFFEE7FFF772
:1025D000A1FB00BF5021EFF3118081F31188BFF3FD
:1025E0004F8FBFF36F8F00BF0546A06BE16B884232
:1025F00001D3022E23D194F945B0324651462046EC
:10260000FEF705FE0BF1010088B9606A08B90120E8
:1026100000E0002080B904F1240000F061FA58B114
:10262000B8F1000F08D00120C8F8000004E00BF159
:10263000010040B284F845004FF0010901E04FF07D
:10264000000900BF85F3118800BF4846BDE8F09F30
:102650002DE9F74183B005460E464FF000082C46A1
:1026600054B900BF502080F31188BFF34F8FBFF3E0
:102670006F8F00BF00BFFEE70EB9206C08B90120C4
:1026800000E0002050B900BF502080F31188BFF354
:102690004F8FBFF36F8F00BF00BFFEE700F002F95E
:1026A00008B9059808B9012000E0002050B900BF22
:1026B000502080F31188BFF34F8FBFF36F8F00BF9F
:1026C00000BFFEE700BFFFF77FFAA76BF7B1314607
:1026D0002046FEF787FD781EA063206908B9012017
:1026E00000E0002060B904F1100000F0F9F938B101
:1026F0004FF080502F490860BFF34F8FBFF36F8FAB
:10270000FFF78CFA012006B0BDE8F081059818B9F2
:10271000FFF784FA0020F6E7B8F1000F04D101A812
:10272000FFF718FC4FF00108FFF778FAFFF7AAFC53
:10273000FFF74AFA94F94400401C10B9002084F8CD
:10274000440094F94500401C10B9002084F845006D
:10275000FFF764FA05A901A800F02EF8F0B92046A9
:10276000FEF710FFA0B104F124000599FFF704FC67
:102770002046FFF7B6F800F0FFF90028A3D14FF08C
:1027800080500C490860BFF34F8FBFF36F8F9AE7FB
:102790002046FFF7A6F800F0EFF994E72046FFF790
:1027A000A0F800F0E9F92046FEF7ECFE00288AD0F8
:1027B0000020A8E704ED00E070B505460C4655B9C9
:1027C00000BF502080F31188BFF34F8FBFF36F8F8E
:1027D00000BF00BFFEE754B900BF502080F311884E
:1027E000BFF34F8FBFF36F8F00BF00BFFEE7FFF750
:1027F000EBF9124802686868131A2068401C08B98F
:10280000002617E00E4928680968884204D06868E5
:10281000904201D801260DE02068984207D920682F
:10282000C01A20602846FFF795FB002602E0002032
:1028300020600126FFF7F2F9304670BD4400002009
:10284000580000202DE9FF4F85B080468946174685
:10285000DDE912ABB800FFF783F8064656B1502009
:10286000FFF77EF804460CB1266304E03046FFF71C
:10287000F3F900E000247CB10020CDE900ABCDE904
:1028800002403A4649464046089BFEF784FD2046F2
:10289000FEF7F6FB012501E04FF0FF35284609B0B1
:1028A000BDE8F08F0549096809B9012005E0044930
:1028B000096809B9022000E0002070474C000020A0
:1028C00068000020014908687047000044000020AB
:1028D0002DE9F0414FF0000844480068002877D106
:1028E00043480068451C4248056015BB41480068E4
:1028F000006808B9012000E0002050B900BF502056
:1029000080F31188BFF34F8FBFF36F8F00BF00BFFD
:10291000FEE7384807683848006836490860364896
:10292000076036480068401C34490860FEF72CFFF9
:1029300000BF3348006885423CD300BF2D48006883
:10294000006808B9012000E0002020B14FF0FF30FE
:102950002B4908602DE027480068C068C468666895
:10296000B54202D22648066023E0201DFFF7E2F8B8
:10297000A06A18B104F11800FFF7DCF894F82C10E5
:10298000012088401F49096808431E490860E16A20
:1029900001EB81011C4A02EB8100211DFFF708F9C0
:1029A0001A49E06A0968C96A8842C7D34FF001082A
:1029B000C4E700BF15480068C06A00EB80001249F8
:1029C00051F82000012801D94FF0010805E0FFE788
:1029D0000F480068401C0E4908600E48006808B1A6
:1029E0004FF001084046BDE8F0810000680000207B
:1029F000440000203400002038000020580000204F
:102A00006000002048000020AC05002030000020BD
:102A1000500000205400002070B505462C460026CA
:102A2000002D55D02B480068844201D1012000E0E0
:102A3000002050B900BF502080F31188BFF34F8FA2
:102A4000BFF36F8F00BF00BFFEE7E06C50B900BF5F
:102A5000502080F31188BFF34F8FBFF36F8F00BFFB
:102A600000BFFEE7E06C401EE064A16CE06A8842B3
:102A70002ED0E06C60BB201DFFF75CF878B9E06AEF
:102A800000EB8000144951F8200040B994F82C1054
:102A90000120884011490968814310480160A06CF9
:102AA000E062E06AC0F10500A06194F82C100120FA
:102AB00088400A490968084308490860E16A01EB4F
:102AC0008101054A02EB8100211DFFF771F8012603
:102AD000304670BD30000020AC05002048000020CA
:102AE00070B50646F068C46854B900BF502080F342
:102AF0001188BFF34F8FBFF36F8F00BF00BFFEE79A
:102B000004F11800FFF716F815480068A8B9201D51
:102B1000FFF710F894F82C1001208840114909683B
:102B2000084310490860E16A01EB81010E4A02EB9B
:102B30008100211DFFF73CF804E004F118010B4867
:102B4000FFF736F80A49E06A0968C96A884204D979
:102B5000012501200749086000E00025284670BDD6
:102B60006800002048000020AC050020100600206E
:102B7000300000205400002070B5002400263648A4
:102B8000006850B900BF502080F31188BFF34F8F09
:102B9000BFF36F8F00BF00BFFEE7FFF715F82E48A9
:102BA0000068401E2C4908600846006800284FD184
:102BB0002A48006800284BD024E02948C068C4682F
:102BC00004F11800FEF7B6FF201DFEF7B3FF94F8DE
:102BD0002C100120884023490968084321490860D6
:102BE000E16A01EB8101204A02EB8100211DFEF721
:102BF000DFFF1E49E06A0968C96A884202D30120E2
:102C00001B4908601648006808B9012000E0002050
:102C10000028D2D00CB1FEF7B7FD1648056865B1A3
:102C200000BFFFF755FE10B10120114908606D1E6D
:102C3000002DF6D100200F4908600D48006838B11A
:102C4000012630070C490860BFF34F8FBFF36F8F29
:102C5000FEF7E4FF304670BD680000204000002011
:102C60001006002048000020AC05002030000020A5
:102C7000540000205000002004ED00E01CB50024AA
:102C8000FEF75AFA0E48006858B10E480221002398
:102C90004FF48272CDE900100BA10D48FFF7D2FD71
:102CA000044654B900BF502080F31188BFF34F8F02
:102CB000BFF36F8F00BF00BFFEE720461CBD0000C2
:102CC0007400002078000020546D72205376630059
:102CD000C91800082DE9FE4304460D4616461F4656
:102CE000DDF828804FF0000954B900BF502080F370
:102CF0001188BFF34F8FBFF36F8F00BF00BFFEE798
:102D00001448006810B3009501960294062D15DA58
:102D1000FFF7C8FD022808D10023424669460D4846
:102D20000068FFF745FB814610E000231A4669461C
:102D300008480068FFF73CFB814607E000233A465D
:102D4000694604480068FFF707FC81464846BDE82D
:102D5000FE830000740000204FF04070E1EE100A86
:102D600070470000000000000000000000000000AC
:102D700000003F4000000000000000003000400064
:102D800030004000000009000BC03D000BC03D00BA
:102D9000090018C024407FE0224031800000180064
:102DA00024C01B000D803240018003801C4027405E
:102DB0001C80074000401000600000000000000080
:102DC00000000000000000001F80204040200000A4
:102DD000402020401F8000000000090006001F80E6
:102DE000060009000000040004003F800400040005
:102DF000000000100060000000000000000004005F
:102E00000400040004000400000000000040000072
:102E1000000000000000002001C006003800400053
:102E200000001F802040204020401F800000000044
:102E300010403FC000400000000018C02140224068
:102E400024401840000010802040244024401B8073
:102E5000000002000D0011003FC0014000003C8056
:102E6000244024402440238000001F80244024402C
:102E70003440038000003000200027C038002000CC
:102E800000001B802440244024401B8000001C00C4
:102E900022C0224022401F800000000000000840A5
:102EA00000000000000000000000046000000000BE
:102EB0000000000004000A001100208040400900CA
:102EC00009000900090009000000000040402080BE
:102ED00011000A00040018002000234024001800FC
:102EE00000001F802040274029401F400000004074
:102EF00007C039000F0001C0004020403FC02440FF
:102F000024401B8000001F80204020402040308053
:102F1000000020403FC0204020401F800000204093
:102F20003FC024402E4030C0000020403FC024401D
:102F30002E00300000000F0010802040224033801F
:102F4000020020403FC0040004003FC02040204059
:102F500020403FC020402040000000602020202072
:102F60003FC02000200020403FC024400B0030C064
:102F7000204020403FC020400040004000C03FC0F3
:102F80003C0003C03C003FC0000020403FC00C405C
:102F900023003FC020001F802040204020401F8091
:102FA000000020403FC024402400180000001F8083
:102FB0002140214020E01FA0000020403FC02440CD
:102FC000260019C0004018C024402440224031800F
:102FD0000000300020403FC02040300000002000B2
:102FE0003F80004000403F80200020003E0001C0A4
:102FF000070038002000380007C03C0007C0380038
:103000000000204039C0060039C0204000002000E8
:10301000384007C0384020000000304021C0264022
:10302000384020C00000000000007FE04020402029
:103030000000000070000C00038000400000000051
:10304000402040207FE00000000000002000400001
:103050002000000000000010001000100010001000
:103060000010000000004000000000000000000010
:1030700002800540054003C0004020003FC00440DE
:103080000440038000000000038004400440064028
:10309000000000000380044024403FC000400000C6
:1030A00003800540054003400000000004401FC0AD
:1030B000244024402000000002E005500550065046
:1030C000042020403FC00440040003C00040000032
:1030D000044027C000400000000000100010041051
:1030E00027E00000000020403FC00140070004C06E
:1030F0000440204020403FC000400040000007C086
:10310000040007C0040003C00000044007C00440DE
:10311000040003C00040000003800440044003801A
:103120000000041007F00450044003800000000079
:1031300003800440045007F00010044007C0024020
:10314000040004000000000006400540054004C0E3
:103150000000000004001F80044000400000040044
:1031600007800040044007C000400400070004C07E
:10317000018006000400060001C0070001C006002F
:103180000000044006C0010006C004400000041016
:10319000071004E00180060004000000044005C0A0
:1031A0000640044000000000000004007BE04020D6
:1031B0000000000000000000FFF000000000000020
:1031C00040207BE004000000000040008000400040
:1031D000200020004000000000000000000000006F
:1031E0000000000000000000000000001FCC000CE8
:1031F000000000000000000008003000600008002F
:10320000300060000000022003FC1E20022003FCAE
:103210001E200220000000000E1811043FFF108441
:103220000C78000000000F0010840F3800C00778F1
:1032300018840078000000780F8410C411240E98C0
:1032400000E400840008080068007000000000002E
:1032500000000000000000000000000007E0181857
:10326000200440020000000040022004181807E07B
:103270000000000000000240024001800FF00180C9
:103280000240024000000080008000800FF80080B3
:103290000080008000000001000D000E0000000012
:1032A000000000000000000000800080008000801E
:1032B0000080008000800000000C000C0000000076
:1032C00000000000000000000006001800600180FF
:1032D000060018002000000007F008081004100481
:1032E000080807F000000000080408041FFC0004A0
:1032F00000040000000000000E0C10141024104404
:1033000011840E0C000000000C18100411041104AC
:1033100012880C700000000000E003200424082440
:103320001FFC0024000000001F98108411041104E9
:10333000108810700000000007F0088811041104C4
:1033400018880070000000001C00100010FC130022
:103350001C001000000000000E381144108410847E
:1033600011440E38000000000700088C104410447F
:10337000088807F00000000000000000030C030CA8
:103380000000000000000000000000010106000035
:103390000000000000000000008001400220041036
:1033A000080810040000022002200220022002204F
:1033B000022002200000000010040808041002206F
:1033C00001400080000000000E001200100C106C84
:1033D00010800F00000003E00C1813E4142417C43D
:1033E000082807D000000004003C03C41C4007402C
:1033F00000E4001C000410041FFC1104110411045B
:103400000E880070000003E00C1810041004100473
:1034100010081C10000010041FFC100410041004FD
:10342000080807F0000010041FFC1104110417C461
:1034300010040818000010041FFC1104110017C02C
:1034400010000800000003E00C18100410041044E1
:103450001C780040000010041FFC108400800080D5
:1034600010841FFC10040000100410041FFC100442
:1034700010040000000000030001100110011FFEF5
:1034800010001000000010041FFC110403801464DD
:10349000181C1004000010041FFC10040004000499
:1034A0000004000C000010041FFC1F0000FC1F00A3
:1034B0001FFC1004000010041FFC0C04030000E0BB
:1034C00010181FFC100007F0080810041004100466
:1034D000080807F0000010041FFC10841080108002
:1034E00010800F00000007F0081810241024101C92
:1034F000080A07F2000010041FFC1104110011C09B
:1035000011300E0C000400000E1C110410841084F5
:1035100010441C3800001800100010041FFC100498
:1035200010001800000010001FF810040004000430
:1035300010041FF8100010001E0011E0001C0070A5
:1035400013801C0010001FC0103C00E01F0000E0B2
:10355000103C1FC000001004180C163401C001C03C
:103560001634180C100410001C00130400FC130483
:103570001C00100000000804101C106410841304C8
:103580001C04101800000000000000007FFE400234
:10359000400240020000000030000C000380006088
:1035A000001C0003000000004002400240027FFEB9
:1035B000000000000000000000002000400040006B
:1035C0004000200000000001000100010001000196
:1035D0000001000100010000400040002000000048
:1035E0000000000000000000009801240144014494
:1035F000014400FC000410001FFC008801040104C9
:1036000000880070000000000070008801040104C0
:10361000010400880000000000700088010401041B
:1036200011081FFC0004000000F80144014401449B
:10363000014400C800000000010401040FFC110453
:10364000110411001800000000D6012901290129E8
:1036500001C90106000010041FFC008401000100E4
:10366000010400FC000400000104190419FC00041A
:103670000004000000000000000300010101190126
:1036800019FE0000000010041FFC0024004001B4DB
:10369000010C010400000000100410041FFC0004D1
:1036A000000400000000010401FC0104010001FC11
:1036B0000104010000FC010401FC00840100010080
:1036C000010400FC0004000000F8010401040104EE
:1036D000010400F80000010101FF0085010401045C
:1036E00000880070000000000070008801040104E0
:1036F000010501FF00010104010401FC0084010433
:10370000010001800000000000CC012401240124FC
:1037100001240198000000000100010007F80104E5
:10372000010400000000010001F80004000400048E
:10373000010801FC0004010001800170000C001070
:1037400001600180010001F0010C003001C0003077
:10375000010C01F0010000000104018C00740170F3
:10376000018C01040000010101810171000E0018AB
:1037700001600180010000000184010C013401445A
:103780000184010C000000000000000000000100A6
:103790003EFC400240020000000000000000FFFF6D
:1037A0000000000000000000400240023EFC01005A
:1037B0000000000000000000600080008000400069
:1037C0004000200020000000000000000000000079
:1037D00000000000000000000000000000000000E9
:1037E00000000000000000000000000000000000D9
:1037F0000000000000000000000F80380FFE380FAE
:103800008038000000000000000000000000000000
:10381000000000000100000600000C00003800005D
:103820003100000600000C000038000030000000ED
:1038300000000000000061800067F807F980006167
:10384000800061800061800061800067F807F98076
:1038500000618000000000000000000001C0E003E3
:10386000E0F00630080418081FFFFE040E08078762
:10387000F00381E000000000000001F000060C00F1
:10388000040408060C7001F9C0000E00003BE000C3
:10389000EC18070808040C180003E0000000000101
:1038A000E00007F003F818041C0804170807E1D02B
:1038B00003C0E00023B0003C080020080000100016
:1038C00000000000000100003100003200001C0078
:1038D00000000000000000000000000000000000E8
:1038E00000000000000000000000000000000000D8
:1038F0000000000000007F0001FFC00780F00C0006
:103900001810000420000200000000000020000247
:103910001000040C00180780F001FFC0007F0000B9
:103920000000000000000000000000000000000097
:1039300000004200006600006600003C0000180025
:1039400003FFC0001800003C000066000066000095
:103950004200000000000800000800000800000805
:103960000000080001FFC000080000080000080077
:103970000008000008000000000000010000310005
:10398000003200001C0000000000000000000000E9
:10399000000000000000000000000000000008001F
:1039A00000080000080000080000080000080000EF
:1039B00008000008000008000008000000000000E7
:1039C000000000000000380000380000380000004F
:1039D00000000000000000000000000000000000E7
:1039E000000000000000000600001C000070000144
:1039F00080000E0000380000C0000700001C00001E
:103A0000300000000000000000007F8001FFE003A4
:103A100080700600180400080400080600180380DF
:103A20007001FFE0007F8000000000000000000047
:103A300001000801000801000803FFF807FFF80073
:103A4000000800000800000800000000000000005E
:103A50000001C03802C0580400980401180402187C
:103A6000040418061C1803F81801E0F80000000010
:103A7000000000000001C0E003C0F00400080408DA
:103A80000804080806180803F41801E7F00001E02C
:103A9000000000000000000000000300000D000016
:103AA000110000610000810803010807FFF80FFF03
:103AB000F80001080001080000000000000000E01C
:103AC00007FCD006080806100806100806100806AD
:103AD0001838060FF00607C00000000000000000C4
:103AE00000003F8001FFE003843002081804100842
:103AF000041008041008071810030FF00007C00096
:103B0000000000000000000003C0000700000600E5
:103B1000000600F80607F806180006E00007000097
:103B200006000000000000000001E1E003F7F006DD
:103B30003410041808041808040C08040C080616AD
:103B40001803F3F001C1E000000000000000F800DD
:103B500003FC3003063804020804020804020804C7
:103B600004100308F001FFC0007F00000000000007
:103B7000000000000000000000000000000070389D
:103B800000703800703800000000000000000000E5
:103B90000000000000000000000000000000000025
:103BA0000000301A00301C0000000000000000007F
:103BB00000000000000000000000000000080000FD
:103BC000140000220000410000808001004002003B
:103BD0002004001008000800000000000000210080
:103BE0000021000021000021000021000021000030
:103BF0002100002100002100002100000000000041
:103C0000000000000800080400100200200100402D
:103C10000080800041000022000014000008000025
:103C2000000000000003C00004C000040000080001
:103C300038080F380808380810000C300007E0007A
:103C400003C000000000000000003F8000FFE00310
:103C50008070020F1006708804C088048308047FF7
:103C60008802C09003012000FE40000008000018F8
:103C70000001F8003E0801C20007020007E2000050
:103C8000FE00001FC80001F8000038000008040012
:103C90000807FFF807FFF8040808040808040808E4
:103CA00004080806180803F41801E7F00001E00012
:103CB0000000000000003F8001FFE0038070020070
:103CC000180400080400080400080400100600207E
:103CD0000780C000000004000807FFF807FFF80491
:103CE0000008040008040008040018020010038003
:103CF0007001FFE0007F8000000004000807FFF86B
:103D000007FFF80408080408080408080408080461
:103D10003E080400080600180100600000000400CE
:103D20000807FFF807FFF804080804080004080063
:103D3000040800043E0006000006000001800000A8
:103D40000000000000003F8001FFE00380700600DB
:103D5000180400080402080402080203F00783F0B4
:103D600000020000020004000807FFF807FFF80443
:103D70000808000800000800000800000800040807
:103D80000807FFF807FFF804000800000000000023
:103D900004000804000804000807FFF807FFF804FF
:103DA00000080400080400080000000000000000F3
:103DB00000000006000007000001040001040001EB
:103DC00004000307FFFE07FFFC04000004000004DA
:103DD000000004000807FFF807FFF8040C080018AB
:103DE00000003E0004C7800503C80600F804003840
:103DF00004001800000804000807FFF807FFF80493
:103E0000000800000800000800000800000800008A
:103E10000800001800006000000004000807FFF818
:103E200007800807FC00007FC00003F80007C000FF
:103E3000780007800807FFF807FFF804000804006F
:103E40000807FFF807000803C00000E00000380082
:103E5000001E000007000001C00400F007FFF80486
:103E60000000000000007F8001FFE003807006007A
:103E70001804000804000806001803003001FFE0E1
:103E8000007F8000000004000807FFF807FFF80427
:103E90000408040400040400040400040400060CE4
:103EA0000003F80001F000000000000000007F8027
:103EB00001FFE00380700600880400880400C80643
:103EC000003C03003E01FFE6007F84000000040088
:103ED0000807FFF807FFF8040808040800040C00AE
:103EE000040F00040BC00610F003F03801E00800D6
:103EF000000800000001E0F803F03006301004185C
:103F000008041808040C08040C080206180207F03C
:103F10000781E000000001800006000004000004AA
:103F2000000004000807FFF807FFF8040008040079
:103F30000004000006000001800004000007FFE00C
:103F400007FFF00400180000080000080000080047
:103F5000000800000804001007FFE004000004004F
:103F60000006000007E00007FE00041FE00001F863
:103F70000000380001E0043E0007C0000600000415
:103F8000000004000007E00007FFC0041FF800075E
:103F9000C007F80007FF80043FF80007C004F800DE
:103FA00007000004000000000004000806001807D5
:103FB000C07805F1C8003E00001F800463E8078058
:103FC000F8060018040008000000040000060000C5
:103FD00007800007E008047C08001FF80007F800CD
:103FE000180804E0080700000600000400000000B4
:103FF000000100080600380400F80403E8040F0874
:10400000047C0805F00807C00807001804006000D9
:1040100000000000000000000000000000000000A0
:10402000003FFFFE200002200002200002200002CC
:10403000200002000000000000000000080000074F
:10404000000000C0000038000006000001C00000B1
:104050003000000E00000100000000000000000021
:104060002000022000022000022000022000023F67
:10407000FFFE000000000000000000000000000043
:1040800000000000000000080000100000300000E8
:1040900020000030000010000008000000000000B8
:1040A000000000000100000100000100000100000C
:1040B00001000001000001000001000001000001FA
:1040C00000000100000100000000000000000020CE
:1040D00000002000001000001000000000000000A0
:1040E000000000000000000000000000000000F0E0
:1040F0000019F8001B1800220800260800240800F8
:104100002410003FF8001FF800000800001800000D
:104110000004000007FFF80FFFF000181800100857
:10412000002008002008003018001FF0000FC00019
:1041300000000000000007C0001FF0001830002041
:1041400008002008002008003C08001C1000006047
:104150000000000000000000000007C0001FF00089
:10416000381800200800200800200804101007FF5D
:10417000F80FFFF000001000000000000000000039
:104180000007C0001FF000123000221800220800B3
:104190002208003208001E10000E2000000000005F
:1041A0000000200000200800200801FFF803FFF8AD
:1041B000062008042008042008072000030000004F
:1041C000000000000000000E000E6E001FF3003122
:1041D000B10020B10020B1003191001F13002E1E4C
:1041E00000200E00300000000004000807FFF80F58
:1041F000FFF8001008002000002000002008003F09
:10420000F8001FF800000800000000000000000097
:10421000002008002008002008063FF8063FF800AC
:104220000008000008000008000000000000000076
:104230000000000000000300000300200100200136
:10424000002003063FFE063FFC00000000000000C7
:10425000000000000004000807FFF80FFFF800014D
:1042600088000300002FC00038F800203800200824
:104270000000080000000000000000000400080426
:10428000000804000807FFF80FFFF800000800000E
:1042900008000008000000000000002008003FF8AF
:1042A000003FF8001008002000003FF8003FF80031
:1042B0001008002000003FF8003FF8000008000050
:1042C00000002008003FF8003FF800100800100030
:1042D000002000002008003FF8001FF80000080040
:1042E00000000000000007C0000FF0001830003090
:1042F00008002008002008003008001830000FF0E7
:104300000007C0000000000000002001003FFF0087
:104310003FFF001011002009002008002008003095
:1043200038001FF0000FC00000000000000007C0B0
:10433000001FF000381800200800200800200900A5
:104340001011001FFF003FFF0000010000000020CF
:1043500008002008002008003FF8003FF800080887
:10436000001008002008002000003000003000008D
:104370000000000000000000000C78001E18003350
:10438000080023080021080021880021980030F04F
:104390000038600000000000000020000020000045
:1043A000200000FFF003FFF8002008002008002094
:1043B00008000030000000000000000000002000A5
:1043C000003FF0007FF8000018000008000008001F
:1043D0002010003FF8007FF00000100000000000F7
:1043E00000002000003000003C00003F800023F06F
:1043F000000078000070002380003C0000300000C6
:104400002000002000003C00003FE00023F80000F6
:10441000E0002700003E00003FE00021F80001E03E
:10442000003E0000200000000000200800200800DE
:104430003838003E680027800003C8002CF8003898
:1044400038002018002008000000000000002000B4
:10445000003003003C01003F830023EC00007000AB
:104460002380003C0000200000200000000000002D
:10447000000000000038080020380020F80023E881
:10448000002F88003E080038080020180000700047
:10449000000000000000000000000000000000001C
:1044A000000008000014001FF7FC30000620000286
:1044B00000000000000000000000000000000000FC
:1044C0000000000000000000FFFFFF0000000000EF
:1044D00000000000000000000000000000000000DC
:1044E0002000023000061FF7FC0014000008000046
:1044F00000000000000000000000000000000000BC
:104500000018000060000040000040000020000093
:104510001000000800000400000400000C0000105F
:10452000000000004445000800000020A400000036
:10453000C4010008E8450008A40000205C38010020
:10454000E001000800000000000000000000000082
:10455000007A030A000000000000000001020304CA
:10456000060708090000000000000000000000002D
:10457000000000000000000000000000000000003B
:10458000000000000000000000000000000000002B
:10459000000000000000000000000000000000001B
:1045A000000000000000000000000000000000000B
:1045B00000000000000000000000000000000000FB
:1045C00000000000000000000000000000000000EB
:1045D000000000000000000000000000AAAAAAAA33
:0845E0000000000000000000D3
:040000050800018965
:00000001FF
